:020000040800F2
:1000000000500020ED0000084501000845010008EF
:1000100045010008450100084501000800000000F6
:100020000000000000000000000000004501000882
:1000300045010008000000004501000845010008D6
:100040004501000845010008450100084501000878
:100050004501000845010008450100084501000868
:100060004501000845010008450100084501000858
:100070004501000845010008450100084501000848
:100080004501000845010008450100084501000838
:100090004501000845010008450100084501000828
:1000A0004501000845010008450100084501000818
:1000B0004501000845010008450100084501000808
:1000C00045010008450100084501000845010008F8
:1000D00045010008450100084501000845010008E8
:0C00E0004501000845010008450100082A
:1000EC000E480F490F4A9142BEBF50F8043B41F8ED
:1000FC00043BF8E70C490D4A00239142BCBF41F880
:10010C00043BFAE700F01AF809480A490860BFF303
:10011C004F8FBFF36F8F00F02FFBFEE750080008E6
:10012C00000000200000002000000020240100201E
:10013C000000000808ED00E0FEE70000374B82B03D
:10014C001A6842F001021A605968354A0A405A602E
:10015C001A6822F0847222F480321A601A6822F42F
:10016C0080221A605A6822F4FE025A604FF41F0271
:10017C009A600022009201921A6842F480321A604E
:10018C001A6802F400320192009A01320092019A2C
:10019C001AB9009AB2F5A06FF2D11A6812F40032B3
:1001AC0018BF01220192019A012A30D11D4A11680F
:1001BC0041F010011160116821F003011160116808
:1001CC0041F0020111605A685A605A685A605A68C4
:1001DC0042F480625A605A6822F47C125A605A685F
:1001EC0042F4E8125A601A6842F080721A601A6877
:1001FC009201FCD55A6822F003025A605A6842F008
:10020C0002025A605A6802F00C02082AFAD14FF026
:10021C000062054B9A6002B0704700BF00100240AC
:10022C000000FFF80020024000ED00E0006870477D
:10023C00024AD368DB07FCD4704700BF00200240A1
:10024C000D4908B5FFF7F4FF0B6943F002030B618E
:10025C0048610B6943F040030B61FFF7E9FF34235E
:10026C00C868CB6000F01400B0FA80F00B6940094C
:10027C0023F002030B6108BD00200240094A1368F9
:10028C00506803F16043B3F5A04F09D800F17843EF
:10029C00A3F58053B3F56C4F02D200F00100704708
:1002AC00002070470010000808B5074B19685A6801
:1002BC0072B60024054884810548836081F3088860
:1002CC0062B69047FEE700BF0010000800480040EF
:1002DC0000ED00E04FF0FF3330B50A4D0144884289
:1002EC0001D1D84330BD10F8012B5340082243F301
:1002FC000004013A2C4012F0FF0284EA5303F6D1B9
:10030C00EDE700BF2083B8EDF0B51C4D8BB0BDF808
:10031C00404000950125264660F07F00ADF80610A0
:10032C0002928DF804508DF80500ADF80C400DF1DB
:10033C000D0219198B421CD10E3421466846FFF769
:10034C00C9FF6D46030C2F192DF80400BB70000E6D
:10035C000B4BF87015F8012B19880906FCD5013EDA
:10036C0016F1120F9A80F5D11A885206FCD50BB0F3
:10037C00F0BD13F8010B02F8010FDBE753544D5796
:10038C000048004010B5FFF779FFD0B10E4C236840
:10039C00E168DA43914215D10C4A934211D0A2F58F
:1003AC00DD22A2F5E06293420CD161684B1EB3F5DD
:1003BC006C4F07D20648FFF78DFFA3681B1A5842F3
:1003CC00584110BD0020FCE700FC00085346573193
:1003DC00001000082DE9F041174600244FF03408B6
:1003EC00174D2B6943F001032B61BC4206D3144A11
:1003FC000120136923F00103136117E0631CBB4256
:10040C0038BFCB5C0E5D34BF46EA032646F47F460C
:10041C002652FFF70DFFEB68C5F80C8013F0140F94
:10042C0006D000202B6923F001032B61BDE8F0817D
:10043C00235A9BB2B342F4D10234A4B2D5E700BF25
:10044C00002002400E212DE9F043A94DA94E89B0A0
:10045C00431CA94A9BB21488A406FCD59288042B91
:10046C002A540DD12846FFF7E1FEB04206D06B7836
:10047C002B70AB786B70EB78AB7003231846E7E707
:10048C000E2B0FD12A68B24240F073812A79012ACF
:10049C0040F06F81A989B1F5807F00F26A81123139
:1004AC0089B2EBE79942E9D104396818FFF7BEFE2F
:1004BC0007462846FFF70EFFB8426C7940F0528190
:1004CC00013C052C00F24481DFE814F006003F00EB
:1004DC008D00CD000E013A01884B0024B3F8E030BA
:1004EC0087489BB29A008DF80D209A099B0B8DF8CA
:1004FC000F304FF46C438DF80C40CDE904038DF8AC
:10050C000E20FFF73FFF4FF48263079314238DF8FF
:10051C0018008DF81940ADF81A406F7900932246F7
:10052C003846E98803ABFFF7EFFE042F40F0158146
:10053C00002C40F01E817349734BCA6802F4E062D0
:10054C001343CB60BFF34F8FFEE7AB89082B40F012
:10055C00FF806A4BB3F8E0309BB2402B02D00023F3
:10056C000324DAE76948FFF761FE694B044618601B
:10057C006848FFF75BFEDFF8A081631EB3F56C4F94
:10058C00C8F80000EBD2654B65481A69110641BFEB
:10059C00644A5A6002F188325A60FFF751FE10B972
:1005AC0000230524B9E704F2FF346FF3090404F1C6
:1005BC000064534F04F580543846FFF741FE002881
:1005CC00EED007F58067BC42F6D80022564B514856
:1005DC00FFF72CFE1A600122544BC8F800001A7069
:1005EC0000231C4699E7514B1B78002B00F0B3807D
:1005FC00DFF83481A868D8F80090AF89484514D248
:10060C003B1899450ED1002300F10061484C01F5CF
:10061C0080519AB2BA42E3D2CA5C14F8010F01338A
:10062C009042F6D00023042477E7FBD17B1EFF2BEE
:10063C00F8D8374BC41919688C42F3D810F0010361
:10064C00F0D1FA0701D58C42EDD100F100603A46A9
:10065C002E4900F58050FFF7BDFE0028A0D04F4476
:10066C00C8F80070BCE7314F3B78002B38D0284BD2
:10067C002D4A1B68D2F80080984531D1414620485C
:10068C00FFF728FE244B04461B68984202D0062430
:10069C00002342E7FFF7F2FD0028F8D0254B10228B
:1006AC00CDE90338244B1E4803A905940693FFF7A4
:1006BC0091FEB8B10024194A136943F08003136109
:1006CC003C70A2F58052D36943F0C053D361A2F5BC
:1006DC00D032136843F480731360184B9C80D7E7B7
:1006EC000224D5E70524D3E70022104B77E700BF9F
:1006FC001000002053544D570048004000F7FF1FD6
:10070C000010000800ED00E00400FA051E000020B7
:10071C000C000020220000200800002000200240D5
:10072C0000FC0008230167450400002000000020A5
:10073C001D00002053575031ACA8AFCE006C0040C8
:10074C00FFF720FE034600287FF44AAF0724E4E6B7
:10075C0000230124E1E60224DFE6062F09D144B987
:10076C00FFF7A2FD002301222046E9880093FFF742
:10077C00CBFD0E21002381E62A4B73B59A692A49D9
:10078C0042F008029A61DA69284C42F48022DA615C
:10079C004A6822F47F4242F496424A604FF49C72BB
:1007AC00228142F20C02A281DA6942F0C052DA6173
:1007BC001F4A136843F4807313604BF207021D4BFE
:1007CC009B889BB293422AD0FFF7DCFD38B3002202
:1007DC00194D1A4B1A4E01920199A94201D9FFF7F2
:1007EC0063FD2188890614D5511CA08889B204297F
:1007FC00985412D11846FFF719FDB04202D10846A1
:10080C00FFF720FE5A781A709A785A70DA789A7034
:10081C000322019901310191DEE70A46F9E7002034
:10082C00EEE700BF00100240000C01400048004001
:10083C0000700040006C00403F5489001000002004
:04084C0053544D575D
:10FC000053465731FFFFFFFFFFFFFFFFACB9A8CE00
:04000005080000ED02

:020000040800F2
:1010000000500020811300087D1200087F120008A4
:1010100081120008831200088512000800000000F9
:10102000000000000000000000000000871200081F
:1010300089120008000000008B1200088D120008C1
:10104000D9130008D9130008D9130008D9130008D0
:10105000D9130008D9130008D9130008D9130008C0
:10106000D9130008D9130008A1960008D913000865
:10107000D9130008D9130008D9130008D9130008A0
:10108000D9130008D9130008D9130008D913000890
:10109000D9130008D9130008D9130008D913000880
:1010A000D913000839400008D9130008D9130008E3
:1010B0005D210008D913000845210008D913000854
:1010C000D9130008D9130008D9130008D913000850
:1010D000D9130008D9130008A9370008992C000873
:0C10E000D9130008D9130008D913000828
:1010F0008FB5022000F072F900F09AFE022000F095
:10110000A9F9012000F0A6F901F05CFA01F07AFAE1
:10111000002141F61F4001F099FA4FF4E13000F050
:10112000D9FE4FF46131482002F0DCFA4FF4E1308F
:1011300001F00AFC00F058FF00F0A4FF01F018F8DD
:1011400001F074FB00204FF6FF7505F049FB02F03B
:10115000C3F9002100240C264FF001080846502353
:10116000A022009502F00CF84FF4784324213C4A69
:101170001420CDE90164009502F09EF84FF47A70D6
:1011800000F08EFE01F0F4FD01F008FE4FF478430C
:101190002421344A1420CDE90164009502F08CF832
:1011A0004FF47A7000F07CFE5023A02221462046A6
:1011B000009501F0E5FF4FF4784324212A4A1420DA
:1011C000CDE90164009502F077F84FF47A7000F0F1
:1011D00067FE264F21465023A0222046009501F0AD
:1011E000CFFF234887F8008008F028F921462048DF
:1011F00008F02AFA40BBCDE901604FF4784324217E
:1012000014201C4A009587F8008002F055F84FF42E
:101210007A7000F045FE00214FF6FF730846A022C9
:101220000093502301F0ACFF00F08CFE41F61F410B
:10123000632001F067FB04F089FF3B78002BFAD0B4
:101240000B4808F015FAF6E74FF4784324211420F0
:10125000CDE90164084A009502F02EF83C70D6E70B
:1012600060C200086DC200087EC20008C8040020E9
:10127000200600208DC200089FC200087047FEE7CC
:10128000FEE7FEE7FEE770477047704770470000D3
:10129000374B82B01A6842F001021A605968354A29
:1012A0000A405A601A6822F0847222F480321A606E
:1012B0001A6822F480221A605A6822F4FE025A60E8
:1012C0004FF41F029A600022009201921A6842F4C1
:1012D00080321A601A6802F400320192009A0132D8
:1012E0000092019A1AB9009AB2F5A06FF2D11A6869
:1012F00012F4003218BF01220192019A012A30D162
:101300001D4A116841F010011160116821F00301BC
:101310001160116841F0020111605A685A605A6800
:101320005A605A6842F480625A605A6822F47C1209
:101330005A605A6842F4E8125A601A6842F08072A1
:101340001A601A689201FCD55A6822F003025A60AA
:101350005A6842F002025A605A6802F00C02082AE7
:10136000FAD14FF00062054B9A6002B0704700BF9F
:10137000001002400000FFF80020024000ED00E0F5
:101380000E480F490F4A9142BEBF50F8043B41F846
:10139000043BF8E70C490D4A00239142BCBF41F8D9
:1013A000043BFAE7FFF774FF09480A490860BFF3F6
:1013B0004F8FBFF36F8FFFF79BFEFEE770DA0008D9
:1013C00000000020C8040020C804002018090020E4
:1013D0000010000808ED00E0FEE70000C3430849E4
:1013E0001B02CA6803F4E06322F4E0621204120CE8
:1013F000134343F0BF6343F40033CB60704700BF37
:1014000000ED00E0F8B51546044618460E46FFF715
:10141000E5FF01220E4B690953F8217005F01F0CFE
:1014200002FA0CF23A4343F821202B440F25C0F175
:10143000040125FA00F093F800238C4000EA06012D
:101440000C4342EA0412D2B283F80023F8BD00BF75
:1014500000E100E0064A936943F001039361A2F5BD
:101460008832536823F0E06343EA40635360704777
:101470000010024070B50125017801F01F039D4066
:10148000C3784C09BBB10E4B4678DA68D243C2F33D
:101490000222C2F104039E4083780F2020FA02F258
:1014A00013403343074A1B01DBB2114481F8003378
:1014B00042F8245070BD034B203443F82450F9E720
:1014C00000ED00E000E100E04FF0E0231A6904289D
:1014D0000CBF42F0040222F004021A6170470000BF
:1014E00008B5144B98420BD101214FF4007000F065
:1014F00093F900214FF40070BDE8084000F08CB96A
:101500000D4B984208D101214FF4806000F084F91E
:1015100000214FF48060EFE7084B984208D1012189
:101520004FF4004000F078F900214FF40040E3E769
:1015300008BD00BF0024014000280140003C0140DC
:1015400043680A7923F4702323F4807343EA022367
:101550000A6810B5134343608468D1E9022313433A
:10156000084A224013434A7943EA420383600A7CD3
:10157000C36A013A23F47003D2B243EA0253C3624E
:1015800010BD00BFFDF7F1FF836819B143F00103FF
:101590008360704723F00103FAE7836819B143F4CD
:1015A000A0038360704723F4A003FAE7092970B50C
:1015B0001BD90726A1F10A04C56804EB4404A64020
:1015C00025EA060503FA04F42C43C460062A17D85A
:1015D0001F24013A436B02EB8202944023EA040386
:1015E00001FA02F21A43426370BD0725046901EB58
:1015F0004106B54024EA0504B34023430361E5E70F
:101600000C2A0CD81F24073A036B02EB8202944089
:1016100023EA040301FA02F21A430263E4E71F24F7
:101620000D3AC36A02EB8202944023EA040391401C
:101630001943C162D8E7C06C80B2704700680840A7
:10164000003818BF01207047014B5861704700BF38
:1016500000040140F0B5CB780E88DA0648BF8A78DE
:1016600003F00F0548BF15430A78C2B100210127D6
:101670004FF00F0C026807FA01F434EA060E0AD1A3
:10168000282B2AD144618C000CFA04FE22EA0E02B7
:1016900005FA04F4224301310829ECD10260FF2E3F
:1016A0001AD9002101274FF00F0C426801F10804FC
:1016B00007FA04F434EA060E0AD1282B11D144614A
:1016C0008C000CFA04FE22EA0E0205FA04F422430E
:1016D00001310829EAD14260F0BD482BD3D1046121
:1016E000D1E7482B08BF0461EAE701617047416117
:1016F000704700000028164A30B500F44015B4BF0A
:10170000D3695368B5F5401F84B210D1556823F0F2
:10171000706325F07065556019B1420D1201944057
:1017200023430B4A0028B4BFD361536030BDC202CB
:101730004DBF0322420D1201C0F303454CBFAA4026
:1017400004FA02F223EA020343F07063E4E700BF05
:1017500000000140034A536823F4404303435360AD
:10176000704700BF001002401A4A10B5536803F0DA
:101770000C03082B2CD153685168C3F38343CC036B
:1017800003F102031FD414494B4303605168134C07
:10179000C1F30311615CCB4043605168C1F3022186
:1017A000615C23FA01F181605168C1F3C221615C7F
:1017B000CB40C36052680A49C2F381328A5CB3FBF2
:1017C000F2F3036110BD51688903DCD40549DBE7FE
:1017D000044BDAE70010024000093D0010C9000880
:1017E0000CC9000800127A00044B9A6911B1024337
:1017F0009A61704722EA0002FAE700BF0010024037
:10180000044BDA6911B10243DA61704722EA00023F
:10181000FAE700BF00100240044BDA6811B102433E
:10182000DA60704722EA0002FAE700BF00100240C7
:1018300030B5048C42EA031224F001042404240C81
:101840000484048B144B24F0F3042404058C240C2E
:1018500014439842ADB2A4B212D003F5006398428B
:101860000ED0B0F1804F0BD0A3F59833984207D03B
:1018700003F58063984203D003F58063984207D153
:1018800025F00205294341F001010483018430BDA4
:1018900025F00A05F6E700BF002C014070B5048C66
:1018A000120224F010042404240C0484058B42EA60
:1018B000033225F44075164B2D05048C2D0D0E01B9
:1018C00015439842A4B2B6B2ADB212D003F500638C
:1018D00098420ED0B0F1804F0BD0A3F598339842C8
:1018E00007D003F58063984203D003F580639842E4
:1018F00008D124F0200346EA030444F010010583D4
:10190000018470BD24F0A004214341F01001F6E7EA
:10191000002C0140224A038890429BB212D002F56B
:10192000006290420ED0B0F1804F0BD0A2F59832F9
:10193000904207D002F58062904203D002F58062A7
:10194000904209D14A8823F070031343CA8823F4D4
:1019500040739BB2134306E0124A904203D002F553
:1019600080629042F2D103808B8883850B88038547
:101970000B4B98420FD003F5006398420BD003F550
:101980004063984207D003F58063984203D003F583
:101990008063984201D10B7A0386012383827047CA
:1019A000002C014000100040038C70B523F00103AF
:1019B0001B041B0C0384038C8488028B0D8822F08B
:1019C00073021204120C4E882A4323F002030D897D
:1019D0001B0435431B0C2B43144DA4B2A8429BB2ED
:1019E0000FD005F50065A8420BD005F54065A8426B
:1019F00007D005F58065A84203D005F58065A842AB
:101A00000ED14D8923F008032B438D8823F0040366
:101A1000CE892B438D8924F4407435432C43A4B2E2
:101A200084800283CA888286038470BD002C0140B2
:101A3000038C70B523F480531B041B0C0384038CAC
:101A40008488828B0D8822F4E6421204120C42EA4A
:101A500005224E880D8923F400531B0435431B0CCB
:101A600043EA05330B4DA4B2A84292B29BB203D015
:101A700005F50065A84205D18D8924F4804444EA27
:101A80008514A4B284808283CA88A0F8402003848D
:101A900070BD00BF002C01404FF6FF738380002310
:101AA0000380C380438003727047002301220380B8
:101AB00043808280C38003817047038821B19BB239
:101AC00043F001030380704723F001031B041B0C48
:101AD000F8E783899BB212B119438181704723EAE9
:101AE0000101FAE770B50689048B058C24F4407473
:101AF00024F0030425F0220526F0070624042D0413
:101B00003604240C2D0C42EA0312360C44F4807483
:101B100015430E4344F00104ADB2068104830584ED
:101B200070BD038821B19BB243F0800303807047EE
:101B300023F080031B041B0CF8E7038B23F008033E
:101B40001B041B0C0B4303837047838B23F400633C
:101B50001B041B0C43EA01239BB2838370478184DF
:101B60007047038B23F00C031B041B0C0383038BB4
:101B70009BB20B4303837047038B23F440631B0426
:101B80001B0C0383038B9BB243EA01239BB20383A9
:101B90007047838B23F00C031B041B0C8383838B04
:101BA0009BB20B4383837047838B23F440631B04F6
:101BB0001B0C8383838B9BB243EA01239BB28383F9
:101BC00070470000F8B50E46098804467588B2884B
:101BD000338939B92946FFF72BFEF188BDE8F84073
:101BE000FFF7BFBF042907D12946FFF757FEF18849
:101BF000BDE8F840FFF7C0BF0829008CF18837D155
:101C000020F480700004000C2084A68B208CB6B2D7
:101C100026F0F306164346EA0316354B2F029C4284
:101C200080B2BFB2B6B212D003F500639C420ED0B0
:101C3000B4F1804F0BD0A3F598339C4207D003F545
:101C400080639C4203D003F580639C420CD120F456
:101C5000007347EA030040F48070A6832084204686
:101C6000BDE8F840FFF795BF20F420602843F2E775
:101C700020F480500004000C2084A68B1B0326F463
:101C80004076360543EA0223360D1E43184B208C5E
:101C90002F039C4280B2BFB2B6B212D003F50063EC
:101CA0009C420ED0B4F1804F0BD0A3F598339C42E8
:101CB00007D003F580639C4203D003F580639C4208
:101CC0000CD120F4005347EA030040F48053A6836C
:101CD00020462384BDE8F840FFF766BF20F400707B
:101CE0004004400C45EA000343F48053EFE700BF93
:101CF000002C0140C94389B20182704730B50446C7
:101D0000038ACA889BB223F44053134387B00382EB
:101D100083898A8823F4B05323F00C031B041B0C23
:101D200013430A890D4613434A8913439BB28381A7
:101D3000838A8A899BB223F440731343838201A868
:101D4000FFF712FDDDE9033214498C4208BF134648
:101D50001922A18953432A680D044CBF52009200F6
:101D60006421B3FBF2F3B3FBF1F001FB103302018A
:101D7000A08900044BBFDB001B01323332334BBF61
:101D8000B3FBF1F3B3FBF1F303F0070303F00F032D
:101D900013439BB2238107B030BD00BF0038014020
:101DA000838921B19BB243F400538381704723F4AC
:101DB00000531B041B0CF8E7012310B5C1F34214B8
:101DC000012C01F01F0103FA01F305D10C3042B1DF
:101DD00002681343036010BD022C0CBF1030143096
:101DE000F5E7026822EA0303F4E78088C0F30800FD
:101DF000704703460120C1F3421210B5012A01F0D9
:101E00001F0400FA04F00DD19A891B8892B2104089
:101E10009BB230B10122090A8A401340181E18BF34
:101E2000012010BD022A0CBF1A8A9A8AEDE7000031
:101E300008B56FF00400FFF747FB084B084A1B6822
:101E4000B3FBF2F3074ADBB21370C3EB431203EBAD
:101E50008203054ADB00138008BD00BF1C00002080
:101E600000127A00F8040020F60400200B4B002238
:101E70001B7858434FF0E02358619A611A6942F089
:101E800001021A611A6902F00112012AFAD01A69D4
:101E900022F001021A6100229A617047F8040020C2
:101EA0000B4B00221B8858434FF0E02358619A6186
:101EB0001A6942F001021A611A6902F00112012A3C
:101EC000FAD01A6922F001021A6100229A61704761
:101ED000F604002010B5012186B0044644F2040047
:101EE000FFF782FC144B01A914480193FFF7B2FBE2
:101EF0004FF48063ADF80430042310480DEB030168
:101F00008DF80730FFF7A6FB4FF44023029400241E
:101F100002A90B48CDE90343ADF81440FFF7EEFEEC
:101F2000224640F225510648FFF746FF01210448AA
:101F3000FFF736FF06B010BD00020318000801408D
:101F40000038014010B5012186B04FF40170FFF751
:101F50004BFC4FF40040FFF7FDFB002410236946C3
:101F60000E48ADF800308DF80340FFF773FB0C48C6
:101F7000FFF7B6FA4FF460230194CDE90334ADF8CE
:101F80000840012401A906488DF81440FFF7D8FA4B
:101F900021460348FFF7F8FA06B010BD00080140DB
:101FA00000240140014608B5094807230122FFF734
:101FB000FDFA01210648FFF7F0FA02210448FFF775
:101FC0003DFB0028F9D0BDE808400148FFF733BBCE
:101FD0000024014008B50420FFF7E4FF41F6C813D0
:101FE0005843001308BD0000012130B5084689B0F0
:101FF000FFF706FC01210420FFF7F6FB042303256D
:102000000DEB03011E488DF80730ADF80450FFF7C3
:1020100021FB02A8FFF740FD00244FF6FF7302A941
:102020004FF08040CDE90243FFF774FC224623467F
:1020300029464FF08040FFF755FD05A8FFF735FD15
:102040000A2305A94FF08040ADF81C30FFF7BAFD18
:1020500001214FF08040FFF74DFE01224FF08040FC
:102060001146FFF736FD21464FF08040FFF777FD20
:1020700001214FF08040FFF720FD09B030BD00BFC7
:102080000008014010B5012188B00420FFF7B8FB1B
:1020900001210820FFF7A8FBC023ADF8043004237A
:1020A0001A480DEB03018DF80730FFF7D3FA02A8A9
:1020B000FFF7F2FC00244FF6FF7302A91448CDE9A4
:1020C0000243FFF727FC2246234603211048FFF76F
:1020D00009FD05A8FFF7E9FC0A2305A90C48ADF89E
:1020E0001C30FFF76FFD01210948FFF703FE0122B5
:1020F00007481146FFF7EDFC21460548FFF72FFD85
:1021000001210348FFF7D9FC08B010BD000C0140C5
:102110000008004003280AD004280AD002280AD167
:102120004FF080430022988C9A8400B27047034B92
:10213000F8E7034BF6E70020704700BF00040040BB
:1021400000080040044A138A138A23F001031B0489
:102150001B0C1382704700BF000800404FF0804204
:10216000138A138A23F001031B041B0C138270478C
:1021700007B501210C20FFF737FB074B01A90748E2
:102180000193FFF767FA064B064801A90193FFF791
:1021900061FA03B05DF804FB008003100008014001
:1021A00008000310000C014070B50124124B134DC0
:1021B0005A6822F070425A605A6842F040525A609F
:1021C000C5F8BC41D5F83C310BB9002070BD0C4EB0
:1021D0002046C6F88C41FFF749FE0023C5F8BC3104
:1021E000D5F83C51002DF0D12046FFF73FFE2046A8
:1021F000C6F88C51EAE700BF000801400000214208
:102200000080214238B50E4B0E4D5A680E4C22F01C
:1022100070425A605A68012042F040525A600023CE
:10222000C5F88C31C4F8BC31FFF720FE0120C5F899
:102230008C01C4F8BC01BDE83840FFF717BE00BFF1
:1022400000080140008021420000214238B50124ED
:10225000144B154D5A68204622F070425A605A6855
:1022600042F000425A60C5F8BC41FFF7FFFD0F4B3A
:102270002046C3F88C41FFF7F9FD3324D5F83C31F3
:1022800023B90A4A0120C2F88C3106E0013C14F05F
:10229000FF0403D1FFF7B6FF204638BD0120FFF74A
:1022A000E5FDEBE7000801400000214200802142EB
:1022B00038B500250C4C0D4BC4F88C515A680120E0
:1022C00022F070425A605A6842F040525A60084BFD
:1022D000C3F8BC51FFF7CAFD0120C4F88C01FFF719
:1022E000C5FDC4F88C5138BD008021420008014072
:1022F0000000214270B5002601240D4D0D4BC5F89C
:102300008C615A68204622F070425A605A6842F046
:1023100040525A60084BC3F8BC41FFF7A7FD204666
:10232000C5F88C41FFF7A2FDC5F88C6170BD00BFF8
:10233000008021420008014000002142164B2DE997
:10234000F0415A68044622F070425A605A680825E3
:1023500042F040525A6000230127104EDFF84080BF
:10236000C6F88C31E309C8F8BC310120FFF77EFDC7
:102370000120C6F88C71FFF779FD00230120C6F813
:102380008C31013DFFF772FD640015F0FF05E4B2EA
:10239000E8D1BDE8F08100BF000801400080214283
:1023A00000002142F8B504460F4615461E46FFF7C9
:1023B000FBFE48B1600000F0FE00FFF7BFFFFFF733
:1023C00045FF18B9FFF71EFF012010E03846FFF760
:1023D000B5FF0024FFF73AFFA54205DD305DFFF7AA
:1023E000ADFFFFF733FF18B9FFF70CFF0020F8BD72
:1023F0000134F1E72DE9F041002405460827A04605
:10240000144B154E5A6822F070425A605A6842F0D6
:1024100000425A600220C6F88C81FFF727FD012395
:10242000C6F88C319C400D4BE4B2D3F83C310BB173
:102430000134E4B20220FFF719FD7B1E13F0FF0701
:10244000E8D125B1FFF734FF2046BDE8F081FFF762
:1024500051FFF9E7000801400080214200002142BD
:10246000F8B505460F4614461E46FFF79DFE48B1D7
:102470006D00EDB22846FFF761FFFFF7E7FE18B9E0
:10248000FFF7C0FE0120F8BD3846FFF757FFFFF702
:10249000DDFEFFF789FE681CC0B2FFF74FFFFFF7B4
:1024A000D5FE1CB9FFF7AEFE2046ECE7012C0CBFB1
:1024B00000200120FFF79EFF013C06F8010BE4B26B
:1024C000EFE738B504460D46FFF76EFE2046FFF7EE
:1024D00035FFFFF7BBFE2846FFF730FFFFF7B6FEDC
:1024E000FFF762FE601CC0B2FFF728FFFFF7AEFEE9
:1024F0000020FFF77FFF0446FFF784FE204638BD2B
:10250000F8B507460E4615461C46FFF74DFE384601
:10251000FFF714FFFFF79AFE3046FFF70FFFFFF7B4
:1025200095FE2544AC4203D1FFF76CFE0120F8BDB7
:1025300014F8010BFFF702FFFFF788FEF2E7F7B58B
:102540001C46174605460E46FFF7BBFF9DF8203098
:10255000C4F108029340DBB2C7F107021341FF2226
:10256000E41B0734013742FA04F4BA402243104016
:1025700018438DF807000122314628460DF1070364
:10258000FFF7BEFF012003B0F0BDF7B50D461746BB
:1025900004461E46FFF795FF012101FA07F276B1C6
:1025A00040EA0203DBB28DF80730012229462046BB
:1025B0000DF10703FFF7A4FF012003B0F0BD20EAEF
:1025C0000203EFE707B501210820FFF70DF94FF4EB
:1025D0008073ADF804304823044801A98DF8073012
:1025E000FFF738F803B05DF804FB00BF000C0140B2
:1025F000034BD3F82001B0FA80F04009704700BFC8
:102600000080214207B501211820FFF7EDF80A4BA1
:1026100001A90A480193FFF71DF8094B094801A9D0
:102620000193FFF717F80122074BC3F8A421C3F861
:10263000902103B05DF804FB30020310000C014050
:1026400000800310001001400080214270B500247A
:1026500006460D4688B001210D20FFF7C5F801217F
:102660000220FFF7CDF81F4B69461F480093FEF785
:10267000F1FF1E4B69461E480093FEF7EBFF01A8D1
:10268000FFF70AFA01A91B48ADF80A40ADF8064069
:10269000ADF80860ADF80450FFF73CF9164B04A9FB
:1026A00014480493ADF81840ADF81640FFF77CF9D4
:1026B00004A91048FFF7BCF908210E48FFF73DFABE
:1026C00008210C48FFF741FA01210A48FFF729FACF
:1026D00001210848FFF7F1F9064B9C86A3F840401A
:1026E00008B070BD02000318000C01404000031840
:1026F00000080140000400407000010008B54FF4DC
:1027000000610A48FEF7F1FF4FF480510748FEF7D9
:10271000ECFF4FF480510548FEF7E9FFBDE80840A3
:102720004FF400610148FEF7E2BF00BF000801401E
:1027300008B54FF400610748FEF7D7FF4FF480510A
:102740000448FEF7D4FFBDE808404FF4805101482B
:10275000FEF7CBBF0008014008B54FF40061054803
:10276000FEF7C3FFBDE808404FF400610148FEF7E3
:10277000BEBF00BF0008014038B54FF400610446F9
:102780000F48FEF7B4FF082523064FF480510C488C
:1027900012D5FEF7AAFF4FF400610948FEF7A5FF26
:1027A000013D4FF400610648FEF7A1FF640015F0FB
:1027B000FF05E4B2E8D138BDFEF799FFEBE700BFB3
:1027C0000008014010B50446FFF798FF7820FFF796
:1027D000D3FFFFF7C1FF0020FFF7CEFFFFF7BCFFDD
:1027E0002046FFF7C9FFFFF7B7FFBDE81040FFF72E
:1027F0009FBF10B50446FFF781FF7820FFF7BCFFAD
:10280000FFF7AAFF4020FFF7B7FFFFF7A5FF20461D
:10281000FFF7B2FFFFF7A0FFBDE81040FFF788BF4A
:10282000C0B209B1FFF7E5BFFFF7CCBF07B5012183
:102830000420FEF7D9FF314B01A931480193FEF77F
:1028400009FF4FF4C0512E48FEF74FFF4FF4487078
:10285000FFF726FBAE20FFF7B5FF0020FFF7B2FF22
:102860001020FFF7AFFF4020FFF7ACFFB020FFF7CD
:10287000A9FF8120FFF7A6FFFF20FFF7A3FFA120FC
:10288000FFF7A0FFA620FFF79DFFA820FFF79AFF04
:102890003F20FFF797FFC820FFF794FFD320FFF7F3
:1028A00091FF0020FFF78EFFD520FFF78BFF8020E0
:1028B000FFF788FFD820FFF785FF0520FFF782FF8D
:1028C000D920FFF77FFFF120FFF77CFFDA20FFF729
:1028D00079FF1220FFF776FFDB20FFF773FF302030
:1028E000FFF770FF8D20FFF76DFF1420FFF76AFFE1
:1028F000AF20FFF767FF03B05DF804FB001803107B
:10290000000801400E4A936943F4006393610D4B44
:10291000988519859A89032192B242F001029A8121
:102920009A8992B242F040029A811A8892B242F099
:1029300001021A80022319221846FEF763BD00BF68
:1029400000100240002C014010B5012186B0044661
:102950000820FEF749FF01214FF48020FEF750FFC9
:10296000164B694616480093FEF774FE4FF4006359
:10297000ADF800300423694611488DF80330FEF7A6
:1029800069FE104B01A80193FEF774FD00234FF47C
:10299000402202A90C48CDE90332ADF8143002946C
:1029A000FFF7ACF9012240F225510748FFF704FA7E
:1029B00001210548FFF7F4F906B010BD0004031823
:1029C000000C01402700010100480040142208B516
:1029D0000021034807F0CEFD0022024B1A7008BD0B
:1029E00000050020FF04002006490B783BB1064A91
:1029F0001078984202D100200870704713700120AF
:102A0000704700BFFF040020FE04002070B50E4692
:102A10000546144607F080FDC0B2B0424FF00003F7
:102A200006DA237009E0A918314411F8011CA154F9
:102A3000DAB2A95C01330029F5D170BD024B988050
:102A40001A885206FCD570470048004010B504466D
:102A500001448C4200D110BD14F8010BFFF7EEFFCA
:102A6000F7E700007FB5FFF7BFFF002853D17C4C8C
:102A70007C49204607F0FAFF0546002800F09180C7
:102A8000A378794A2D2B794947D1637A2D2B27D109
:102A90006FF00905237BA07A303B6B436425C0F1BE
:102AA000300005FB0033607B30381B1A6FF00905DE
:102AB00048BF0733DB1013806379E078303B6B430A
:102AC0006425C0F1300005FB0033A07930381B1AB3
:102AD00048BF073343F3CF03782B57DD782311E04A
:102AE000A3F12A0015280BD86425303B6B430A2537
:102AF000E07A303805FB0033207B30381B18D5E7EF
:102B0000002313800B80B2F90030782B44DD78234A
:102B10001380FFF75BFF04B070BDA3F12A001528F6
:102B2000EED8207A2D2821D16FF00906E07A657A57
:102B3000303870436426C5F1300506FB0500257B5F
:102B4000303D401B4FF06405A3F1300305FB03F358
:102B50004FF00A0548BF0730C01010802079303888
:102B600005FB0033607930381B18B1E7A0F12A0566
:102B7000152DC5D86426303870430A26A57A303D15
:102B800006FB0500E57A303D4019DBE70B80783322
:102B9000B9DA4FF68873B5E77833BADA4FF6887347
:102BA000B6E72046324907F061FF68B101AA082163
:102BB0002046FFF72BFF294601A806F097FE08F0F4
:102BC00019FE2C4B1860A4E720462B4907F04EFF56
:102BD000054628B10821224801AAFFF717FF98E708
:102BE0002046264907F042FF064660B101AA0821A7
:102BF0002046FFF70BFF294601A806F077FE08F0F4
:102C0000F9FD1F4BDEE720461E4907F02FFF054662
:102C100060B101AA08212046FFF7F8FE314601A85D
:102C200006F064FE08F0E6FD174BCBE72046174997
:102C300007F01CFF60B101AA08212046FFF7E6FE5D
:102C4000294601A806F052FE08F0D4FD104BB9E762
:102C50002046104907F00AFF0028BBD159E700BF02
:102C600000050020ACC20008FA040020FC0400208B
:102C7000AFC2000814000020B7C20008BFC200089D
:102C800010000020C7C200080C000020CFC20008BE
:102C900008000020D7C2000810B540F225510948AD
:102CA000FFF7A7F868B1084C06482378132B84BFB8
:102CB00000232370FFF799F82378044AD054013396
:102CC000237010BD00480040FF04002000050020D4
:102CD00090F90030002B0CDC0DD190F90130002B65
:102CE0000BDC0CD190F90230002B0ADC0BD0062053
:102CF000704700207047042070470120704705206E
:102D00007047022070470720704707B503230090E3
:102D100002226B21D020FFF712FC03B05DF804FB08
:102D200007B50223009004221B21D020FFF707FCE7
:102D300003B05DF804FB07B50223009004221C21B8
:102D4000D020FFF7FCFB03B05DF804FB034606222E
:102D50006B21D020FFF719BC034605226A21D02041
:102D6000FFF713BC034601223721D020FFF70DBC2B
:102D700008B50220FFF7C9FF0320FFF7D1FF0020AD
:102D8000FFF7D9FF0020FFF7E1FF0020FFF7E4FF86
:102D9000BDE808400020FFF7E5BF00000023012246
:102DA00030B5524C89B075218DF8003068206B46E3
:102DB0002270FFF755FB4E4806F006FE9DF80030E6
:102DC000682B09D04B494C4BCA6802F4E0621343AC
:102DD000CB60BFF34F8FFEE702F0B8F8002840F059
:102DE0008180782002F052F810B9414806F0ECFDDD
:102DF000782001F09FFE10B9404806F0E5FDC8209C
:102E000002F004F810B93E4806F0DEFD02F0B6FB11
:102E100010B93C4806F0D8FD3B48FFF759FF024681
:102E20003A48FFF755FF01463948FFF751FF830144
:102E300043EAC100104380B202F0AAFB10B9354842
:102E400006F0C2FD40F2731002F064FE10B9324881
:102E500006F0BAFDC82002F0C7FC10B92F4806F0F2
:102E6000B3FD05A902A802F0F5F9072833D101A89E
:102E700001F020FE019D029808F0C6FD294608F0E9
:102E800017FE08F0DBFF0290039808F0BDFD29460D
:102E900008F00EFE08F0D2FF0390049808F0B4FD8D
:102EA000294608F005FE08F0C9FF049002A802F0C8
:102EB0000FFC0DF1020001F01DFEBDF80220059B84
:102EC00005A853430593069B53430693079B53431F
:102ED000079302F049FC012002F07EF910B9104876
:102EE00006F072FD0023237009B030BDF404002009
:102EF000DFC2000800ED00E00400FA0500C300088E
:102F000025C300084BC30008200000202300002038
:102F1000260000207DC30008A3C30008C8C3000822
:102F2000ECC30008000000002DE9F04F6E4C89B0A2
:102F30000DF10B0301936D4903AB6D48009404AA96
:102F400002F0C0FE2388DB0540F1C580049808F03C
:102F50005BFD4FF0425108F0ABFD664B0646186032
:102F6000059808F051FD4FF0425108F0A1FD624B69
:102F700005461860069808F047FD4FF0425108F0EA
:102F800097FD5E4B04461860079808F03DFD4FF032
:102F9000425108F08DFD5A4B074618604FF04041F2
:102FA000284608F085FD31468046304608F078FC1A
:102FB00041468246384608F07BFD51468146204610
:102FC00008F076FD0146484608F06AFC08F0EAF889
:102FD00006F0CAFD42A3D3E9002308F03BF908F04C
:102FE00009FC484B21461860204608F059FC414630
:102FF0008346284608F05CFD59468046204608F086
:1030000057FD0146404608F049FC4FF07E5108F05C
:1030100047FC08F0C7F8804689463846594608F00C
:1030200047FD51468346284608F042FD0146584672
:1030300008F036FC08F0B6F842464B4606F0C8FCED
:1030400027A3D3E9002308F005F908F0D3FB2E4BA2
:1030500031461860304608F02BFD29468046284648
:1030600008F026FD0146404608F01AFC214680463D
:10307000204608F01DFD0146404608F00FFC394689
:103080008046384608F014FD0146404608F006FC2C
:1030900008F088F8804689462846214608F008FD51
:1030A00039460446304608F003FD0146204608F044
:1030B000F7FB014608F0F4FB08F074F842464B4673
:1030C00006F086FC06A3D3E9002308F0C3F808F055
:1030D00091FB0E4B186009B0BDE8F08FAFF3008094
:1030E0006666666666A64C402C0500202E0500200C
:1030F000340500202C0000201C05002018050020AD
:1031000014050020280500202405002020050020AB
:1031100010B54121D020FFF7D4F942210446D02038
:10312000FFF7CFF900EB042008F06EFC4FF08E4162
:10313000044608F079FE28B120464FF08F4108F090
:10314000ADFB044620460C4908F066FD08F02AF85D
:1031500007A3D3E9002307F0C7FE0022074B08F0BE
:1031600079F808F047FB08F069FE10BDAFF3008066
:10317000A4703D0AD74342400000AA430000244007
:103180002DE9F84317461E46013A013B9BB292B225
:1031900080460C46BDF8209000F07EF9B4420BD377
:1031A000BDE8F883484600F05BF90135ADB2BD4299
:1031B000F8D30134A4B2F1E74546F8E710B5144658
:1031C0000B46024600F068F92046BDE8104000F0CA
:1031D00047B900002DE9F04F87B00193BDF84030AA
:1031E0009DF8446004939DF848301546059316F009
:1031F0000E0318BF012303EB16137343421E029301
:103200004B1E334402EB56029BB292B207460C4669
:103210004FF0000800F040F90C22264B203DEDB2A3
:1032200002FB0533C1463D464FF0060B0093029B5F
:103230001FFA88F2934202D807B0BDE8F08F0C2E37
:10324000FAD14FF0000A009B13F8012B0392009370
:10325000039B43FA0AF2059B02F0010293B97AB18B
:10326000019800F0FDF809F101035FFA83F9B9FB59
:10327000FBF20BFB129212F0FF0214D191460FE009
:103280000498EEE722B121462846019AFFF796FFFF
:103290000135ADB2EA1B062A05D13D460134A4B280
:1032A00008F10108C3E70AF1010ABAF1080FCFD10A
:1032B000F6E700BF20C900082DE9F04F04460E468E
:1032C0001F4685B09DF83C80BDF838909DF840A021
:1032D000551E4FEA580B15F8012F12B905B0BDE87D
:1032E000F08F20463B463146CDE9018ACDF800906B
:1032F0005C44FFF76FFFA4B2EDE72DE9F04F002526
:1033000082462F464FF00A0989B09DF850800792F7
:10331000BDF848205E1E0592BDF84CB04FEA580239
:1033200004910692F4B2FF2C02D109B0BDE8F08FEF
:1033300022460123013AD2B2FF2A1ED1079AB2FBDC
:10334000F3F3B3FBF9F209FB1233DAB2CFB9AE42B1
:1033500017DDABB92022CDE90187059BCDF800B080
:1033600050460499FFF736FF069B013C0AEB030029
:1033700001351FFA80FAE4B2D5E709FB03F3D9E778
:10338000012700233032CDE90183CDF800B0059B41
:10339000D2B2E5E707B501210520FEF725FA0121A4
:1033A0000820FEF721FA01211020FEF71DFA012165
:1033B0000E48FEF79FF90E4B01A90E480193FEF748
:1033C00049F90D4B01A90D480193FEF743F90C4B48
:1033D00001A90C480193FEF73DF94FF4005109484B
:1033E000FEF783F903B05DF804FB00BF0002300074
:1033F000A00003100008014001100310000C014060
:10340000006003100010014038B54FF480410446BD
:103410001148FEF76CF9082501211048FEF767F9FD
:1034200023064FF480510D4812D5FEF75EF90121B5
:103430000A48013DFEF759F9640015F0FF05E4B2B2
:10344000EAD1BDE838404FF480410348FEF74DB95A
:10345000FEF74DF9EBE700BF00100140000C014002
:1034600010B50446000AFFF7CFFFE0B2BDE81040F8
:10347000FFF7CABF10B5044680210648FEF737F9AA
:103480002046FFF7C1FFBDE8104080210148FEF74C
:103490002CB900BF00080140F8B5074616460D4696
:1034A0001C462A20FFF7E6FF3846FFF7D9FF3046D3
:1034B000FFF7D6FF2B20FFF7DDFF05F1180080B2E4
:1034C000FFF7CEFF04F1180080B2FFF7C9FFBDE897
:1034D000F8402C20FFF7CEBF08B5FFF75BFF202197
:1034E0007E48FEF704F96420FEF7DAFC20217B48D1
:1034F000FEF7FBF86420FEF7D3FC4FF40051784848
:10350000FEF7F3F86420FEF7CBFC1120FFF7B2FFC3
:103510007820FEF7C5FCB120FFF7ACFF0520FFF7D0
:1035200073FF3C20FFF770FF3C20FFF76DFFB220D8
:10353000FFF7A0FF0520FFF767FF3C20FFF764FFC0
:103540003C20FFF761FFB320FFF794FF0520FFF752
:103550005BFF3C20FFF758FF3C20FFF755FF05209D
:10356000FFF752FF3C20FFF74FFF3C20FFF74CFFD7
:10357000B420FFF77FFF0320FFF746FF2120FFF76E
:1035800079FFC020FFF776FF0E20FFF73DFF0E20EA
:10359000FFF73AFF0420FFF737FFC120FFF76AFF6C
:1035A000C520FFF731FFC220FFF764FF0D20FFF7B2
:1035B0002BFF0020FFF728FFC320FFF75BFF8D20C4
:1035C000FFF722FF2A20FFF71FFFC420FFF752FF5B
:1035D0008D20FFF719FFEE20FFF716FFC520FFF73C
:1035E00049FF0620FFF710FF3620FFF743FF782042
:1035F000FFF70AFF3A20FFF73DFF5520FFF704FFD2
:10360000E020FFF737FF0B20FFF7FEFE1720FFF744
:10361000FBFE0A20FFF7F8FE0D20FFF7F5FE1A204B
:10362000FFF7F2FE1920FFF7EFFE1620FFF7ECFE82
:103630001D20FFF7E9FE2120FFF7E6FE2620FFF719
:10364000E3FE3720FFF7E0FE3C20FFF7DDFE002021
:10365000FFF7DAFE0920FFF7D7FE0520FFF7D4FEBB
:103660001020FFF7D1FEE120FFF704FF0C20FFF749
:10367000CBFE1920FFF7C8FE0920FFF7C5FE0D207D
:10368000FFF7C2FE1B20FFF7BFFE1920FFF7BCFEAD
:103690001520FFF7B9FE1D20FFF7B6FE2120FFF72A
:1036A000B3FE2620FFF7B0FE3920FFF7ADFE3E2027
:1036B000FFF7AAFE0020FFF7A7FE0920FFF7A4FEF0
:1036C0000520FFF7A1FE1020FFF79EFE7820FEF7F1
:1036D000E7FBBDE808402920FFF7CCBE0008014009
:1036E000001001402D4B70B558430D4608F088F985
:1036F0000446280108F084F90146204608F08CFAB7
:10370000054608F0C1FB84B2204608F07DF9014669
:10371000284608F0C3F84FF0834108F0C9F908F0D3
:10372000B3FB1F4B00EB04119A6989B242F004020B
:103730009A61DA6942F40032DA611A4A106820F4B8
:103740007F401060106840F40B401060D06840F07B
:103750000800D0601A6942F400321A611A6922F432
:1037600000321A61A3F5E633198101219A890846CE
:1037700092B242F4005242F00C029A819A8992B2BB
:1037800042F480729A819A8992B242F020029A8120
:103790000223BDE870402622FDF734BE40420F00F0
:1037A0000010024000080140204B10B51A88940612
:1037B0000ED51F499A88B1F900000B88002892B2F3
:1037C00006DB5804D2B221D50A2A02D000230B808E
:1037D00010BD184843780478303B5A436423303C8A
:1037E00003FB04228378C3F194039B1A13EB430376
:1037F000114A48BF03339B101380C3780F4A303BF4
:103800009B000E2BC8BF0E231380DFE70D2A02D1C9
:1038100043F48043DBE7C3F30D0001339BB2054C57
:103820001E2B22540B80D1D8D2E700BF00440040A9
:103830003A0500203C050020FA040020FC0400208A
:1038400038B50D4B0C4601460C481D6808F026F8AB
:1038500005F100450146284608F02AF9084B0546BF
:10386000196804F1004008F023F90146284608F0E1
:1038700017F808F0E3FA38BD14000020000020C05B
:1038800010000020000000002DE9F041544B0746D5
:103890001B780E46012B534D73D1534B1B68A3F17C
:1038A0009602962A19D80520C3F1960393FBF0F0EF
:1038B00008F0AAF8DFF834810446414608F0B4FA6B
:1038C00010B1C5F800800AE0DFF8248141462046A7
:1038D00008F08CFA0028F4D100E000242C60B8191C
:1038E00008F092F80146286807F0D8FF07F05AFC64
:1038F00037A3D3E9002307F0ADFC3E4E0446306801
:103900000D4607F04FFC34A3D3E9002307F0A2FCD7
:1039100007F070FF07F046FC02460B46204629469A
:1039200007F0E2FA07F066FF3060334E0546316873
:1039300007F0B6FF3149044608F076FA002842D174
:1039400020462F4908F052FA00B12D4C2D4B34601F
:10395000196805F1004008F0ABF82B4B05461968D3
:10396000204608F0A5F80146284607F097FF274BA8
:103970001B78012B04BF0023336008F05FFABDE819
:10398000F081234B1B78012B12D1174B1868C828E4
:10399000A3DCC0F1C80008F037F8DFF878800446EF
:1039A000414608F041FA00288BD1DFF86C808DE7A2
:1039B0001A4BB3F900006FF0020390FBF3F008F02C
:1039C00023F828608BE70D4CC0E700BFAFF3008001
:1039D000EC51B81E85EBC13F85EB51B81E85EB3F1E
:1039E000D104002068050020D40400200000884194
:1039F000000088C1640500206005002000007A44B2
:103A000000007AC40C0000200800002018000020EC
:103A1000D004002000007041000070C1FC040020B0
:103A2000F8B5114B05461F68104BB3F90000404232
:103A300007F0EAFF044608F001FA90B10C4B1E684B
:103A4000394604F1004008F033F829460446304670
:103A500008F02EF80146204607F020FF08F0EEF9A6
:103A6000F8BD0026ECE700BF04000020FA040020A7
:103A70000000002080EAE072A2EBE072642AC8BF76
:103A8000012330B5104C92B2C8BFC4F8903181EA1E
:103A9000E173A3EBE173642BC4BF0125C4F8A45107
:103AA0000028CCBF012400240029CCBF0021012123
:103AB00005489BB2C0F894410448A0F84020044A4D
:103AC000C2F8BC11838630BD008021420004004052
:103AD0000000224208B5FEF78BFD01280FD1084AED
:103AE000002113780846B3FA83F35B091370FFF7DC
:103AF000C1FFBDE808404FF4FA70FEF7D1B908BD28
:103B000018000020000000002DE9F74F0446FFF7E1
:103B1000FFFA9F4B012C9F4FDFF87CA218601CD14D
:103B2000FFF702FA9D4CDAF80030B4F900003B6070
:103B300007F06AFF9A4B1860B4F9040007F064FFBD
:103B4000984B1860984BB3F9040007F05DFF0446EA
:103B5000964B1C6003B0BDE8F08F4321D020FEF7E8
:103B6000B0FC44210446D020FEF7ABFC00EB04205F
:103B700007F04AFF45210646D020FEF7A2FC462169
:103B80000446D020FEF79DFC00EB042007F03CFF2C
:103B900047210546D020FEF794FC48210446D0205A
:103BA000FEF78FFC00EB042007F02EFF3B2183463D
:103BB000D020FEF786FC3C210446D020FEF781FC95
:103BC00000EB042007F020FF3D218046D020FEF7C7
:103BD00078FC3E210446D020FEF773FC00EB042065
:103BE00007F012FF3F218146D020FEF76AFC4021FA
:103BF0000446D020FEF765FC00EB042007F004FF2C
:103C00004FF08E410446304608F00EF928B1304698
:103C10004FF08F4107F042FE06464FF08E41284696
:103C200008F002F928B128464FF08F4107F036FE20
:103C300005464FF08E41584608F0F6F828B1584630
:103C40004FF08F4107F02AFE83464FF08E414046E9
:103C500008F0EAF828B140464FF08F4107F01EFE09
:103C600080464FF08E41484608F0DEF828B14846BD
:103C70004FF08F4107F012FE81464FF08E412046F3
:103C800008F0D2F828B120464FF08F4107F006FE29
:103C90000446434A05F100431360204607F082FAC8
:103CA000CDE90001484607F07DFADDE9002305F083
:103CB0008FFE00223E4B07F0CDFA31A3D3E900235B
:103CC00007F0F2FB07F096FD8146404607F06AFADE
:103CD000DDE9002305F07CFE0022354B07F0BAFA3F
:103CE00027A3D3E9002307F0DFFB07F083FD80461D
:103CF000304607F057FA24A3D3E9002307F0D4FB9A
:103D000007F078FD0646284607F04CFA1EA3D3E9D3
:103D1000002307F0C9FB07F06DFD264B05461B7815
:103D2000022B17D13146484602F090F8224B00F1A1
:103D30000040186005F10041404602F047F900F1EB
:103D40000040CAF80000DAF800303B60154BC3F8B9
:103D500000B0FDE6032BF6D13146484602F014F9D7
:103D600000F10040CAF800002946404602F0CCF9B4
:103D7000114B00F100401860E5E700BFAFF3008091
:103D8000F1D4C853FB21094066666666666630401A
:103D9000E8040020E0040020240500203405002071
:103DA000DC040020D80400202E050020CC040020D4
:103DB0000080664019000020280500200028B8BFB8
:103DC00040427047F8B52C4D14462A880F461E46CF
:103DD000002A48D184EAE47386EAE671A1EBE67131
:103DE000A3EBE4730B44132B244902DD0A8000206B
:103DF000F8BD0B8801339BB20A2B0B80F7D9012346
:103E00000A802B801E4A138801339BB2C82B30D9FD
:103E1000002313802B801B4908F006F80028E6D009
:103E20003846194908F000F8F8B13846174907F044
:103E3000DDFFD0B102232B80154A138801339BB2DA
:103E4000642B89BF0023138013802B80002CB8BF04
:103E50006442002EB8BF76423444962CC7DD00235E
:103E600001202B80C4E7012ACCD02B88022BE3D081
:103E7000BDE71380CFE700BF5E0500205C05002092
:103E80005A0500200050C3460000B4C100008C4118
:103E900058050020F8B51C4B07461B780D46144604
:103EA0000BB90020F8BD194E33884BBB184907F0F9
:103EB000BBFF0028F5D03846164907F097FF0028C9
:103EC000EFD055EA0403ECD101233380124A138862
:103ED00001339BB2322B89BF0023138013803380C0
:103EE000002DB8BF6D42033D422DDAD8002CB8BF7B
:103EF0006442033C422CD4D8002301203380D1E714
:103F0000012BE3D0CDE700BF1800002056050020AC
:103F1000000048C10000F0405405002000000000EF
:103F200010B50C4607F02CF90022234B07F092F94C
:103F30000022224B07F08EF900221F4B07F0B4FA43
:103F400007F058FC07F02EF917A3D3E9002307F078
:103F500081F917A3D3E9002307F07CF907F04AFCA5
:103F6000174B1860204607F00BF90022124B07F0A0
:103F700071F90022114B07F06DF900220E4B07F08A
:103F800093FA07F037FC07F00DF907A3D3E90023F4
:103F900007F060F906A3D3E9002307F05BF907F007
:103FA00029FC084B186010BDF1D4C853FB2109400F
:103FB0009A99999999991940000059400000D03F69
:103FC000B8050020B405002010B5174B1B781BB9AD
:103FD0000022164B1A6010BD012BFCD10028FAD12B
:103FE000124A00291468B8BF4942214411604A1E90
:103FF000622A04D80E4B18700E4B1870EBE7A1F133
:104000006402632A04D80A4A10700A4A1370E2E76D
:10401000A1F1C802632A02D8054A1370ECE7B1F592
:10402000967FD5DAD7E700BF1800002050050020A2
:10403000D1040020D0040020AD4A2DE9F84F138AA6
:10404000DB0740F1DC80138A23F001031B041B0C07
:104050001382A84B1878FFF757FD0220FEF75AF895
:1040600004460420FEF756F80546474214B9A24B11
:10407000C3F8A44115B9A04BC3F890513946204666
:10408000FFF74EFFFDF7A6FF9C4A9D4913680E6897
:1040900001333044642B136008600CD190FBF3F3C0
:1040A000984E336000231360974A0B609042974A02
:1040B00040F3A8801370FFF70DFDDFF854B2954B65
:1040C000DBF800001968FFF7BBFB394606462046BF
:1040D000FFF7DAFB8046904BDFF840A21868FFF745
:1040E0009FFC06EB080341F270761918B1420246B4
:1040F000A8BF31468A489B1A8142ACBFCAF800105B
:10410000CAF80000B342A8BF3346DFF81892DBF8C4
:1041100000808342ACBFC9F80030C9F80000824873
:104120003B46224641460068FFF74CFE7F4E08B1F1
:10413000012333703A4621464046FFF7ABFE08B1F3
:104140000023337040467A4907F050FE58B9404684
:10415000784907F069FE30B93378012B03D0764BEC
:104160001B78012B01D101233370744B1B781BB1D9
:1041700039462046FFF728FF3378002B4CD1D9F879
:104180000010DAF800006E4EFFF774FC3378002B55
:1041900045D103216B48FEF759FC6B49DBF8000061
:1041A00007F07EFB694907F083FC07F047FE68498A
:1041B0000246684805F0C8FA05216648FEF746FC45
:1041C000544B186807F03AFE61490246624805F010
:1041D000BBFA05216048FEF739FC60496048621B64
:1041E00005F0B2FA04215E48FEF730FC3378013363
:1041F000DBB2042B08BF0023337005F059FA00200E
:10420000BDE8F88F13780133DBB20A2B137002BFBD
:104210000122494B1A704EE700210846B3E7022BF2
:10422000E4D1504C2378072B24D8DFE803F00411A5
:104230002B353F494CB903214B48FEF707FC0023BF
:104240004A4A136013714A4B186806F0ABFF4CE002
:1042500003214848FEF7FAFB0023444A1360137118
:10426000002200234449414805F06EFA05213F48E9
:10427000FEF7ECFB23780133DBB2142B88BF00235D
:104280002370B3E703213D48FEF7E0FB0023374AE4
:10429000136013713A4BD7E703213A48FEF7D6FB78
:1042A0000023324A13601371374BCDE7032137489F
:1042B000FEF7CCFB00232D4A13601371344BC3E788
:1042C00003213448C6E703213348FEF7BFFB002330
:1042D000264A136013710B4B186807F095FB06F024
:1042E00061FF00222D4B07F0DFF802460B46B9E7CD
:1042F000002C0140190000200080214270050020A0
:104300006C050020E4040020DF9304007405002005
:10431000E0040020DC040020D8040020F004002089
:1043200090E8FFFFEC040020CC04002018000020DF
:104330000000A0C20000A04275050020C8040020B3
:104340008A05002026C400080000B4420000C842CC
:1043500010C40008840500207F05002015C4000853
:104360007B050020890500201AC40008760500207E
:104370001400002021C400081EC4000825C4000841
:104380001000002029C400080C0000202DC40008E3
:104390000800002031C4000835C4000800408F40E8
:1043A00003210948FEF752FB0023084ADAF800000F
:1043B00013601371D9F80030184407F025FB4FF053
:1043C0007C5107F075FB40E739C4000876050020F2
:1043D0002DE9F043012785B0B34CADF804700646D3
:1043E0000D46D4E900109046897C0222007801AB8A
:1043F000FDF7D8FF814628B14FF0FF38404605B0A1
:10440000BDE8F083C820FDF74BFDD4E900108DF81E
:1044100004903A46C97B007801ABFDF7C3FF002842
:10442000EAD1D4E900103A464979007801ABFDF7AA
:10443000B9FF0028E0D1D4E900103A46897C007821
:1044400001ABFDF7AFFF0028D6D1D4E900103A4602
:10445000C97D007801ABFDF7A5FF0028CCD1D4E9D8
:1044600000103A460979007801ABFDF79BFF002860
:10447000C2D1D4E900100C238DF804303A460979F2
:10448000007801ABFDF78EFF0028B5D10F20FDF7B6
:1044900007FDD4E90010A36A3A465B7A89788DF863
:1044A0000430007801ABFDF77DFF0028A4D1D4E9EA
:1044B0000010A36A3A461B7A49788DF804300078D8
:1044C00001ABFDF76FFF002896D1D4E90010A36A75
:1044D000C8EBC8029B7A897943EA42138DF804300D
:1044E0003A46007801ABFDF75DFF002884D1B8F1B2
:1044F000000F00F0D780A36ADB7A43F0E0038DF869
:104500000430D4E900100122C979007801ABFDF72D
:1045100049FF00287FF470AFB8F1000F02D0C82027
:10452000FDF7BEFCD4E9001040238DF804300122D1
:104530000979007801ABFDF735FF00287FF45CAF07
:10454000D4E9001078238DF80430012249790078ED
:1045500001ABFDF727FF074600287FF44DAF32205F
:10456000FDF79EFCD4E900108DF804700122497912
:10457000007801ABFDF716FF00287FF43DAFD4E9CA
:1045800000100222897A007801ABFDF769FF8046AE
:1045900000287FF431AF0C23BDF8047081467FBA48
:1045A000BFB2B7FBF3F7C6E901003060C5E901000F
:1045B000FFB228605FFA89F3BB4277D33468832265
:1045C000E11709040023200441EA144107F07CFCB0
:1045D0003A46002307F078FC74688322E117090447
:1045E0000023306041EA1441200407F06DFC3A4694
:1045F000002307F069FCB4688322E1170904002353
:10460000706041EA1441200407F05EFC00233A4642
:1046100007F05AFCB0602B68D917090451EA13411E
:104620004FEA034004D540F2FF73C01841F1000186
:10463000C00A002340EA41503A46C91207F044FC40
:104640006B682860D917090451EA13414FEA034007
:1046500004D540F2FF73C01841F10001C00A0023E5
:1046600040EA41503A46C91207F02EFCAB68686038
:10467000D917090451EA13414FEA034004D540F227
:10468000FF73C01841F10001C00A40EA41503A46A8
:104690000023C91207F018FC002839DDA0F580308E
:1046A000A860ABE618232AE730000020D4E9001008
:1046B0000C22C97A007801ABFDF7D2FE09F101099D
:1046C00000287FF499AEBDF804002B68C0BA0344FB
:1046D000BDF806102B606B68C9BA0B44BDF8082002
:1046E0006B60AB68D2BA1344AB60BDF80A003368A4
:1046F000C0BA0344BDF80C1033607368C9BA0B44E8
:10470000BDF80E207360B368D2BA1344B36051E7AA
:1047100000F58030C4E700BF13B50F4C94F8243087
:1047200083B140008DF807000122D4E900100DF19B
:104730000703C97B0078FDF735FE50B99DF80730B7
:10474000637406E0A37A23B10028EBD0637C002BCE
:10475000E8D002B010BD00BF3000002013B5564CA9
:10476000A37A1BB94FF0FF3002B010BD0023D4E98B
:1047700000108DF807300122C97B00780DF1070386
:10478000FDF710FE0028EDD1D4E90010012249798F
:1047900000780DF10703FDF705FE0028E2D1D4E90A
:1047A00000100122097900780DF10703FDF7FAFDE9
:1047B0000028D7D1D4E90030197994F82430002B9F
:1047C00040D00C238DF80730012200780DF107034B
:1047D000FDF7E8FD0028C5D1D4E90010C0238DF80D
:1047E0000730A37A0122DB0744BFE0238DF80730AE
:1047F000097900780DF10703FDF7D4FD0028B1D148
:10480000D4E90010637C0122003B18BF01235B0048
:104810008DF80730C97B00780DF10703FDF7C2FD65
:1048200000289FD10DF107038DF80700D4E900108F
:10483000012249790078FDF7B5FD003818BF012045
:10484000404291E704238DF80730012200780DF1F2
:104850000703FDF7A7FD002884D1A37C4BBBA37AF7
:1048600013F0010F0CBF40236023D4E900108DF832
:1048700007300122097900780DF10703FDF792FD59
:1048800000287FF46FAFD4E90010637C0122003B65
:1048900018BF01238DF80730C97B00780DF107039D
:1048A000FDF780FD00287FF45DAFD4E90010034BD5
:1048B000BEE74023D9E700BF3000002040000020C1
:1048C0000B4B1B7A032B0ED8DFE803F00F02070A0D
:1048D0004FF4FA730380002070474FF47A73F9E7BE
:1048E0004FF4FA63F6E70023F4E7FA23F2E700BF98
:1048F0003000002013B5184CA37A43B1B0F57A7F8D
:104900000ED008D8FA2823D0B0F5FA7F22D04FF085
:10491000FF3002B010BDB0F5FA6FF8D1182300E0F7
:104920001023227A8DF80730B2EBD30F0ED0D4E9E2
:1049300000100122897900780DF10703FDF732FD9F
:104940000028E4D19DF80730DB0823720020E0E75F
:104950000023E6E70823E4E7300000200C4A537AFE
:10496000032B12D8DFE803F00C02080A04230370BB
:10497000D27C3AB9002070470823F8E71023F6E705
:104980000223F4E75B000370F4E74FF0FF30704759
:104990003000002013B5174CA37A33B108280CD08F
:1049A00007D8022821D0042821D04FF0FF3002B0D0
:1049B00010BD1028F9D1182300E01023627A8DF879
:1049C0000730B2EBD30F0ED0D4E900100122C97921
:1049D00000780DF10703FDF7E5FC0028E5D19DF80F
:1049E0000730DB0863720020E1E70023E6E70823D5
:1049F000E4E700BF300000200C4BDB7A013B052BC5
:104A000010D8DFE803F0110307090B0D62230380C0
:104A1000002070472A23FAE71423F8E70A23F6E771
:104A20000523F4E70023F2E7BC23F0E73000002081
:104A300013B5184CA37A1BB94FF0FF3002B010BD6C
:104A4000BB2810D8612810D8292810D8132810D8CE
:104A500009288CBF05230623E27A8DF807309A4295
:104A600009D10020EAE70123F6E70223F4E7032354
:104A7000F2E70423F0E7D4E90010012289780078F6
:104A80000DF10703FDF78EFC0028D5D19DF8073006
:104A9000E372E6E730000020054A034692F824005E
:104AA00010B9D2891A8070474FF0FF30704700BFAD
:104AB000300000200A4B1B7A032B0DD8DFE803F0EF
:104AC0000206080A074B036000207047064BFAE70E
:104AD000064BF8E7064BF6E74FF0FF30704700BF94
:104AE00030000020000003430000834233330342C0
:104AF000333383410E4A537A032B16D8DFE803F091
:104B00000F02090C41F69C730380D27C52B900203D
:104B100070474FF48053F7E74FF40063F4E74FF426
:104B20008043F1E75B080380F1E74FF0FF30704707
:104B300030000020F8B5124E96F824300BB100205A
:104B4000F8BDB47AC4B100F0FE05307D2C40284396
:104B5000377C34740CD00120FFF7DEFD002DEED041
:104B6000FFF7FCFD38B9601B18BF4FF0FF30E7E7D7
:104B7000FFF7D2FDE3E737744FF0FF30E0E700BF07
:104B8000300000202DE9F341214F064697F82430EC
:104B9000884615468BB1BB7A7BB1D7E9001002225B
:104BA000897A007801ABFDF75BFC30B9BDF80440B1
:104BB00064BAA4B2A64205D928704FF0FF3002B003
:104BC000BDE8F08178684388B4EB530F11D9396898
:104BD0000122497C007801ABFDF742FC0028ECD1B2
:104BE0009DF80430DB0604D5FFF7B8FD6FF0010037
:104BF000E5E7D7E900104346C97A0078F2B2FDF73D
:104C00002FFC0028D9D1B4FBF6F4013C2C70D6E778
:104C10003000002037B5394C0546A37C83426AD06A
:104C2000636801221878236819790DF107036DB3C1
:104C3000FDF716FC18B14FF0FF3003B030BD9DF802
:104C40000730D4E9001023F020038DF8073001224B
:104C5000097900780DF10703FDF7A4FB0028EAD1DC
:104C60000320FDF71DF902238DF8073094F8223058
:104C700013B182238DF8073094F823307BB39DF86D
:104C8000073043F030038DF8073028E0FDF7E8FBEC
:104C90000028D0D1D4E90010A27A9DF80730D207BD
:104CA0004CBF43F0200303F0DF038DF807300122EF
:104CB000097900780DF10703FDF774FB0028BAD1DC
:104CC0000320FDF7EDF894F8223094F82320003B00
:104CD00018BF0123DB018DF80730002AD1D1D4E9B8
:104CE00000100122097D00780DF10703FDF75AFB42
:104CF0000028A0D1A57400209FE700BF300000204D
:104D000037B5164C054694F82330834220D000284E
:104D10000CBF00233023A27C8DF807301AB143F07A
:104D200002038DF8073094F822302BB19DF807303C
:104D300063F07F038DF80730D4E900100122097D6C
:104D400000780DF10703FDF72DFB20B984F82350FF
:104D5000002003B030BD4FF0FF30FAE730000020F4
:104D6000282837B5054603D94FF0FF3003B030BDD2
:104D7000254C90B9FFF7C4FFD4E900104FF4E0636D
:104D8000ADF804300222897C007801ABFDF70AFB04
:104D90000028E9D120750020E8E70120FFF7B0FFE7
:104DA0002023012D8DF804301ED1002305208DF81D
:104DB0000530FFF73DFED4E900109DF805300222D2
:104DC0009B0143F007038DF80530897C007801AB27
:104DD000FDF7E8FA0028C7D108220123A272207348
:104DE0002375FFF7A7FED6E7052D01D80123DDE7E0
:104DF000142D95BF022303230A20142094BF8DF89D
:104E000005308DF80530D4E73000002073B51E4D15
:104E10000446AB7A1BB94FF0FF3002B070BD95F875
:104E200024000028F7D12B7D4BB1631E272B04D81B
:104E3000E0B2FFF795FF0020EFE7FFF791FFD5E91C
:104E40000010B4F57A7F28BF4FF47A74042C38BF71
:104E500004244FF47A76B6FBF4F4013C8DF8074055
:104E60000122497800780DF10703FDF79BFA00282D
:104E7000D1D19DF807300133B6FBF3F0E88140084B
:104E8000FFF7D6FDD7E700BF3000002010F0700F0D
:104E90000CBFB0FA80F3012373B504BF5B099B011B
:104EA000294D8DF807300446D5E900100122897C90
:104EB00000780DF10703FDF775FA30B100234FF0CC
:104EC000FF36AB72304602B070BD9DF80730A106C8
:104ED00023F040032B73C4F3801383F001034FEAE4
:104EE00083038DF807305EBFDBB243F002038DF819
:104EF0000730E20658BF9DF80730D5E900105CBFC7
:104F000043F001038DF80730230758BF9DF80730A1
:104F10004FF001025CBF43F038038DF80730C97CC5
:104F200000780DF10703FDF73DFA06460028C5D1CC
:104F300014F0F70F01D0FFF7E3FE00233220AC722C
:104F40002B75FCF7ADFFBDE730000020802337B59F
:104F5000474C8DF80030D4E900106B460122897C63
:104F60000078FDF71FFA0546002861D16420FCF7A0
:104F700097FFD4E900108DF800506B460122897C20
:104F80000078FDF70FFA002852D1D4E900106B46E3
:104F90000622897D0078FDF763FA002848D19DF844
:104FA00005109DF8033089005B0003F0020301F057
:104FB000040119439DF8013003F0010319433CD06B
:104FC000012952D0022930D10023E3744FF6FF7338
:104FD000E3812374FF23A3744FF0FF330122A36006
:104FE000002324494FF4FA60C4F8163022734B6052
:104FF0008B60A38262846362FFF77CFCC0B90220ED
:10500000FFF7C8FCA0B92A20FFF712FD80B93220B3
:10501000FFF7FCFE60B9FFF78DFD48B9FFF7FAFD19
:10502000044628B9FFF732FF04E0134804F0CCFC33
:105030004FF0FF34204603B030BDD4E900106B467A
:105040000122C9780078FDF70BFA0028F0D19DF80D
:10505000003013F00F0303D1084804F0B5FCE7E774
:10506000042BB1D1064804F0AFFC0123ADE700BF2B
:1050700030000020460000203DC4000863C4000842
:10508000B1C40008F7B50D4616461AB94FF0FF3007
:1050900003B0F0BD114CA37A002BF7D0676843BA78
:1050A000ADF80430C0B27B8908449842EEDC216838
:1050B0000222097E387801ABFDF774F90028E5D1AA
:1050C000D4E900103346497D0078EAB2FDF76AF969
:1050D000003818BF01204042DAE700BF300000204E
:1050E000F7B50D4616461AB94FF0FF3003B0F0BDC4
:1050F000114CA37A002BF7D0676843BAADF804309F
:10510000C0B27B8908449842EEDC21680222097E05
:10511000387801ABFDF746F90028E5D1D4E9001055
:105120003346497D0078EAB2FDF79AF9003818BF96
:1051300001204042DAE700BF300000202DE9F04FA7
:10514000244D89B095F8254081468A46164601933C
:1051500024B14FF0FF3009B0BDE8F08F0029F8D03E
:105160004C4512D376BAADF80C60D5E90010022296
:10517000897E007803ABFDF715F90028E9D10123FA
:1051800085F82530019BEB84E5E7A9EB0408B8F12D
:10519000100FA8BF4FF010080AEB040B1FFA88F796
:1051A0005A4639462046FFF76DFF0028D1D13946CF
:1051B000204604AAFFF794FF0028CAD13A46584671
:1051C00004A905F009FD10B92744BCB2C8E76FF087
:1051D0000100C0E73000002037B51D4C054694F8AB
:1051E000243083421ED000B394F825306BB30020E6
:1051F000FFF792FA0020FFF70DFDE08CFFF706FEA7
:10520000002360688DF807300122232100780DF11A
:105210000703FDF7C7F8012084F82400FFF77CFAA4
:10522000FFF79CFA002003B030BDFFF775FA237C2E
:1052300060688DF807300122232100780DF1070303
:10524000FDF7B0F884F82450EAE74FF0FF30EAE7C2
:10525000300000202DE9F04FB34D95B095F8243083
:1052600080468946009323B10020FFF7B5FF012354
:1052700000930DF11E00FFF723FB0DF11D00FFF75A
:105280006DFB0DF12200FFF7B7FB08A8FFF704FC48
:10529000AB7A002201932B7C494640460393FFF7EB
:1052A00097F800287FD101220EA90BA8FFF790F8EC
:1052B000002840F0A980686804220D2100780AAB1C
:1052C000FDF7CEF80446002800F0A6800024A3468F
:1052D0000EAE11AF56F8043B59F82B00C01A002847
:1052E000B8BF404206F090FB4FF05E5106F0E0FB85
:1052F00057F8043B824600211846029306F06CFDE5
:10530000002840F0CB80029B5046194606F084FCF2
:105310004FF07E5106F0C2FA844920F0004006F0BA
:1053200083FD18B1012303FA0BF31C430BF1010BAE
:10533000BBF1030FCED16868E3B202935A460D2148
:10534000007811ABFDF78CF80446002840F0E980A6
:1053500006464FF0010BBDF844309DF8462023F47B
:10536000604302F01F0223F0E003ADF844308DF8F3
:1053700046200DF12C0A11AF5AF8043B58F82600CC
:10538000C01A0028B8BF404206F03EFB4FF05E5105
:1053900006F08EFB17F8013B8146002B00F0B4802D
:1053A000634864498AE0002249464046FFF710F806
:1053B00000283FF478AF00244FF6FF730126EB81FD
:1053C0002B744FF0FF33BDF81E00AB602E73FFF758
:1053D00091FA9DF81D00FFF7DDFABDF82200FFF7F6
:1053E00027FBBDF82000FFF711FD0198FFF74EFDE8
:1053F0000398FFF79FFB009B13B13046FFF7ECFECD
:10540000204615B0BDE8F08F01220EA90BA8FEF7CB
:10541000DFFF0028CFD14EE79DF828309DF82B20E4
:10542000DB10C2F3011103F01C030B438DF8243091
:105430009DF82930C2F38101DB1003F01C030B43FC
:105440008DF825309DF82A3002F00302DB1003F0BE
:105450001C0313438DF826300023DFF8DCB03749F6
:105460000DF1240A11AF1AF8016BAEB93B6001349B
:10547000E4B2032C07F10407F5D127E70493029166
:1054800006F016FB0299049B013E16F0FF063860F9
:10549000F4D10AF8016CEAE75846F5E75046284986
:1054A00006F0A4FC00287FF43DAF5046254936E7BE
:1054B000CDE9041306F0FCFADDE90413013B13F017
:1054C000FF03F5D1014607F8013C484606F0A4FB6E
:1054D0004FF07E5106F0E2F9144920F0004006F04A
:1054E000A3FC10B10123B3401C430136032E7FF40B
:1054F00043AFE4B2B4FA84F46409029B002B7FF456
:105500005BAF44F0020457E70F4906F06FFC28B97F
:1055100048460E4906F088FC0028E6D00BFA06F350
:10552000E2E70024E9E700BF30000020295C0F3EDD
:105530000000C84154E3853F7B14AE3E1D5A843FB2
:105540009A99993E3333733F000020410000D242C4
:10555000704700001FB5084A01AB10685168127A05
:1055600003C309211A704FF4976001AAFFF78AFD5F
:1055700005B05DF804FB00BFD0C40008C8234FF499
:10558000806240F6F6300149FFF7D8BDE4CD00084F
:1055900010B54A4B86B01A889B78ADF808208DF874
:1055A0000A30474B00F003011A889B78ADF80C20B5
:1055B0008DF80E30434B04461A889B78ADF81020C6
:1055C0008DF81230404B1A889B78ADF814208DF876
:1055D000163001F118030DEB030111F8103CC0F374
:1055E000C1028DF8003002F118030DEB030212F82E
:1055F000103C11F80C1C8DF80130C0F381131833E6
:105600006B4413F8100C12F80C2C13F80C3C8DF8AA
:1056100002008DF804108DF8052003216A4640F23F
:1056200026408DF80630FFF72DFD18B14FF0FF3002
:1056300006B010BD032140F22A4001AAFFF722FD67
:105640000028F3D1049B6107ADF800304FEA134303
:105650008DF80230059B4FF00301ADF804304FEA9E
:1056600013438DF8063041BF37238DF800302723D0
:105670008DF80430A20641BF57238DF8013047232F
:105680008DF80530E30542BF77238DF8023067239C
:105690006A464FF4886048BF8DF80630FFF7F2FC89
:1056A0000028C3D1032140F2314001AAFFF7EAFCF0
:1056B0000028BBD1054B1C81BAE700BFDAC4000843
:1056C000DEC40008E2C40008E6C400088C0500201F
:1056D000234B37B51A8902F00303C2F3C10150F816
:1056E0002330540750F8215048BF5B42910648BF11
:1056F0006D42C2F38111D2051A4A50F8211085FB80
:10570000025048BF4942AD0F45EA800581FB0210B7
:1057100083FB02329B0F8C0F43EA820344EA80042E
:105720001BBA04214FF4747001AA0193FFF7AAFC7D
:1057300018B14FF0FF3003B030BD2DBA04214FF443
:10574000757001AA0195FFF79DFC0028F1D124BADC
:10575000042101AA4FF476700194FFF793FCEAE765
:105760008C05002009E3CA027FB506460DF1020050
:10577000FFF7C0F91B4BBDF802401D89E40305F09B
:10578000030356F82310C5F3C1036A0756F8232014
:1057900048BF4942AB0648BF5242E80581FB0410AE
:1057A000C5F381134FEA917156F8233041EA800125
:1057B00009BA48BF5B42019182FB042183FB043498
:1057C000920F42EA81029B0F12BA43EA84030292CB
:1057D0001BBA0C2101AA4FF425700393FFF752FC6A
:1057E00004B070BD8C05002010B50446144A86B084
:1057F0001068516803AB03C39068C82C186003D9C4
:105800004FF0FF3006B010BD00238DF80430C823E0
:10581000B3FBF4F30221013B40F2162001AA8DF8FC
:105820000530FFF72FFC0028EAD10C2140F6C120FB
:1058300003AAFFF727FC0028E2D1024B9C81E1E795
:10584000EAC400088C05002073B5044608466107C9
:1058500015D0B0F5C86F12D806F0D2F8434906F05B
:10586000DBF906460DF10300FFF778F89DF80330E9
:10587000082B5FD007D8022B11D0042B50D04FF04B
:10588000FF3002B070BD102BF9D14FF08A41304685
:1058900006F00EF906F0F8FA354985B208E04FF047
:1058A0008D41304606F004F906F0EEFA314985B232
:1058B000304606F0FDF806F0E7FA80B26DBA40BA5D
:1058C000E207ADF80450ADF806003DD4A30710D5AB
:1058D00002214FF4EC7001AAFFF7D4FB0028CED1CF
:1058E00002214FF494700DF10602FFF7CBFB002864
:1058F000C5D114F00400C4D002214FF4EE7001AA07
:10590000FFF7C0FB0028BAD102214FF496700DF1C9
:105910000602FFF7B7FB003818BF01204042B0E78E
:105920004FF08C41304606F0C3F806F0ADFA12494C
:1059300085B2BDE74FF08B41304606F0B9F806F06E
:10594000A3FA0E4985B2B3E702214FF4EA7001AA27
:10595000FFF798FB002892D102214FF492700DF1CD
:105960000602FFF78FFB0028B0D088E7000048430D
:105970000000C044000040460000C0450000404513
:1059800010F0010318BF302307B582078DF80730E8
:1059900042BFDBB243F00C038DF80730430748BF2A
:1059A0009DF807304FF0010148BF43F003030DF1AC
:1059B00007024FF4A47048BF8DF80730FFF762FB71
:1059C00003B05DF804FB042807B528BF04200128B4
:1059D00038BF012001388DF8070001210DF10702C1
:1059E00040F24F10FFF74EFB03B05DF804FB0523B8
:1059F00007B5B0FBF3F040BAADF80400022101AAEC
:105A00004FF4EF70FFF73EFB03B05DF804FB052396
:105A100007B5B0FBF3F040BAADF80400022101AACB
:105A20004FF4ED70FFF72EFB03B05DF804FB4FF46D
:105A30007A7307B590FBF3F0484300BA0190042154
:105A400001AA4FF4AE70FFF71DFB03B05DF804FB35
:105A5000052307B5B0FBF3F040BAADF8040002210E
:105A600001AA4FF4AD70FFF70DFB03B05DF804FB26
:105A7000052307B5B0FBF3F040BAADF804000221EE
:105A800001AA4FF4AC70FFF7FDFA03B05DF804FB18
:105A90001FB520B105B05DF804EBFFF75BBD084A08
:105AA00001AB10685168127A03C309211A704FF4D0
:105AB000976001AAFFF7E6FA05B05DF804FB00BFA6
:105AC000F7C4000807B560B1074B042101AA40F6EE
:105AD00098200193FFF7D6FAFEF740FE03B05DF879
:105AE00004FB4FF08B33F0E7C0C2C4C607B560B10A
:105AF000074B042101AA40F69E200193FFF7C2FA4A
:105B0000FEF72CFE03B05DF804FB4FF0A333F0E783
:105B1000202830382DE9FF41674B042101AA0446B3
:105B200068200193FFF7AEFAA32314F0400803BFE7
:105B300019461A461846C8211CBFC222C02014F4B8
:105B4000C0768DF804300CBFA323C4238DF8061053
:105B50008DF8072004BF19461A468DF808304FF01B
:105B6000A3031CBFCC21C6228DF80B304AF2A3330D
:105B70008DF805008DF809108DF80A200A2101AA78
:105B800040F6A720ADF80C30FFF77CFA14F00307BD
:105B90000CBFD8232023012140F6B62001AA8DF89E
:105BA0000430FFF76FFA14F0200075D0FFF7D2FC35
:105BB000C6B1E2055DBFB0208021B422B22045BF4E
:105BC0008B21B62290239B238DF804008DF80510BD
:105BD0008DF80620042140F6A22001AA8DF8073096
:105BE000FFF750FAE3075AD5F82301AA01214FF431
:105BF0000B608DF80430FFF745FAFA210720FFF714
:105C000023FE0720FFF7BCFE0120FFF7DCFE642027
:105C1000FFF7EDFE4FF4FA70FFF7F9FEC8212748B1
:105C2000FFF705FF2820FFF713FF0A20FFF720FFEB
:105C300014F0020F0CBFD823D923012101AA40F28E
:105C40003D708DF80430FFF71DFA14F0040018BF02
:105C50000120FFF737FF14F0100018BF0120184D86
:105C6000FFF744FF44F008036B81FEF777FDB8F1BE
:105C7000000F0CBF00230623DEB9AB7314F0140F22
:105C80001EBFAB7B1033AB7317B1AB7B0433AB736D
:105C9000002004B0BDE8F081FFF7FAFE88E7D823C2
:105CA000012101AA4FF40B608DF80430FFF7EAF9E7
:105CB000BEE70633E1E700BF02CAE30909E3CA020F
:105CC0008C0500202DE9F04F9A46002389B0129DE3
:105CD000DFF874B18046894617466946139A9BF8E7
:105CE0000E002B80FEF74EFF064648BBBBF80A00AD
:105CF000694610F0140F00F0A580019B009A93FAFA
:105D000083FCC7F804C04FEA2C4C0CFB0CFC12BA05
:105D10003A60121402FB02C2029B039C1BBABB60D6
:105D20001B1403FB032324BAFC60241404FB043477
:105D300004F17144B4F1007F08D9FEF70FFD2E8005
:105D40004FF0FF36304609B0BDE8F08F10222B88A7
:105D500043F480732B80440634D502F120036B4456
:105D600013F8204C531CDBB220336B4413F8203C57
:105D700043EA0423A9F80030931CDBB220336B44C0
:105D800013F8204CD31CDBB220336B4413F8203CB7
:105D900043EA0423A9F80230131DDBB220336B441D
:105DA00013F8204C531DDBB220336B4413F8203C16
:105DB000063243EA0423A9F804302B88D2B243F018
:105DC00008032B8010F4C07F20D002F120036B4425
:105DD00013F8207C13F81F4C063244EA0724A8F875
:105DE000004013F81E7C13F81D4CD2B244EA07247D
:105DF000A8F8024013F81C4C13F81B3C43EA042398
:105E0000A8F804302B8843F070032B80800715D04E
:105E10008C186378E578DA0708D5DBF800302BB109
:105E200005F007010131C5F3C200984763781B07ED
:105E300004D5DBF804300BB1A80998475046FFF7AA
:105E400087FB7FE7324686E78C0500202DE9F04F7F
:105E5000474B85B01A6806460192464A0846D2F872
:105E600000A0019905F01AFD514605F021FE424AB5
:105E7000424C116805F014FDD4F80480A76841462F
:105E800002903F4805F00AFD394605F007FD5146EE
:105E900005F00EFE216805F003FDD4F80CB00546B0
:105EA00051460BF1004005F003FE81460146404695
:105EB00005F0F6FC49468046384605F0F1FC0299AB
:105EC0000390304605F0EAFC4FF07C5181462846AD
:105ED00005F0E6FC06460146284605F09DFE3146E3
:105EE0000746039805F098FE39460646284605F011
:105EF000DFFD0146284605F0D1FC394620604046CA
:105F000005F0D6FD0146404605F0C8FC314660600C
:105F1000284605F0CDFD0146039805F0BFFC194960
:105F2000A060504605F0C4FD594605F0B9FC314665
:105F30000546404605F0BCFD0146284605F0AEFC8E
:105F40003946E060484605F0B3FD029905F0A8FC2B
:105F5000094A044610603146484605F0A9FD0199FA
:105F600005F09EFC024B1860204605B0BDE8F08F9E
:105F7000B00500207C000020AC0500206C00002053
:105F80006F12833AA69B443B0C4B70B50C4E0546F2
:105F90000846196805F08CFD316805F081FC094957
:105FA00005F086FD08490446284605F081FD0146B6
:105FB000204605F075FC306070BD00BF7C000020FD
:105FC000A805002048E17A3F0AD7A33C2DE9F04F0D
:105FD000474B85B01A6806460192464A0846D2F8F1
:105FE00000A0019905F05AFC514605F061FD424AB6
:105FF000424C116805F054FCD4F80480A76841466F
:1060000002903F4805F04AFC394605F047FC5146EE
:1060100005F04EFD216805F043FCD4F80CB00546B0
:1060200051460BF1004005F043FD814601464046D4
:1060300005F036FC49468046384605F031FC0299A9
:106040000390304605F02AFC4FF07C5181462846EB
:1060500005F026FC06460146284605F0DDFD3146E2
:106060000746039805F0D8FD39460646284605F050
:106070001FFD0146284605F011FC394620604046C8
:1060800005F016FD0146404605F008FC314660600B
:10609000284605F00DFD0146039805F0FFFB194960
:1060A000A060504605F004FD594605F0F9FB314665
:1060B0000546404605F0FCFC0146284605F0EEFB8F
:1060C0003946E060484605F0F3FC029905F0E8FB2C
:1060D000094A044610603146484605F0E9FC01993A
:1060E00005F0DEFB024B1860204605B0BDE8F08FDE
:1060F000A40500207C000020A00500205C000020FA
:106100006F12833AA69B443B0C4B70B50C4E054670
:106110000846196805F0CCFC316805F0C1FB094957
:1061200005F0C6FC08490446284605F0C1FC0146B6
:10613000204605F0B5FB306070BD00BF7C0000203C
:106140009C05002048E17A3F0AD7A33C2DE9FF4196
:10615000CC4B00211B78012B40F090824FF6FF734F
:106160000C22CDE900324FF47843C74A0291084629
:10617000FDF7A2F8C54B1B78012B40F09A820C2347
:106180000021CDE901314FF6FF7300934FF47843BE
:10619000BF4AC04C3720FDF78FF82378002B40F022
:1061A0009A820C230021CDE901314FF6FF7378204C
:1061B0000093B94A4FF47843FDF77EF80C2400258C
:1061C0004FF6FF76B54F214628464FF47843CDE988
:1061D0000145B34A0096FDF76FF80021386805F0D5
:1061E00005FE48B14FF4FC6321462820CDE9014566
:1061F000AC4A0096FDF760F80021386805F00AFE09
:1062000060B100230C21CDE901134FF6FF73282064
:106210000093A54A4FF4FC63FDF74EF8386805F08B
:106220000DFE0C24FDF7CAFD4FF6FF754FF4FC661A
:106230004FF0000882B2032321462E20CDE90154FD
:106240000096FDF75AF83346984A21464220CDE998
:1062500001480095FDF730F89549386805F028FCAD
:1062600005F0ECFDFDF7AAFD0A2390FBF3F202FB1B
