:020000040800F2
:1000000028100020FD050008010200080302000876
:10001000070200080B0200080F02000800000000A1
:1000200000000000000000000000000013020008B3
:10003000150200080000000017020008190200085D
:10004000170600081706000817060008170600081C
:10005000170600081706000817060008170600080C
:1000600017060008170600085BEF000817060008CF
:1000700017060008170600081706000817060008EC
:1000800017060008170600081706000817060008DC
:1000900017060008170600081706000817060008CC
:1000A00017060008935900081706000817060008ED
:1000B000452C0008170600082D2C0008170600081C
:1000C000170600081706000817060008170600089C
:1000D0001706000817060008CD4E00087D3C0008F2
:1000E00017060008170600081706000800F002F8B7
:1000F00000F070F80AA090E8000C82448344AAF152
:100100000107DA4501D100F065F8AFF2090EBAE84F
:100110000F0013F0010F18BFFB1A43F0010318473B
:10012000A4400100C44001000A444FF0000C10F844
:10013000013B13F0070408BF10F8014B1D1108BF65
:1001400010F8015B641E05D010F8016B641E01F805
:10015000016BF9D113F0080F1EBF10F8014BAD1C55
:100160000C1B09D16D1E58BF01F801CBFAD505E073
:1001700014F8016B01F8016B6D1EF9D59142D6D3CD
:10018000704700000023002400250026103A28BFF5
:1001900078C1FBD8520728BF30C148BF0B607047F9
:1001A000662912F02A8564290EF05A8700207047CC
:1001B0001FB50FF09DFC04000020002111F078FB1A
:1001C000401C60600020002111F05CFBE0601FBD5E
:1001D00010B510BD0FF0B8FD1146FFF7E9FF00F0B4
:1001E0000DF910F031F803B4FFF7F2FF03BC02F091
:1001F000A3FB000030BF72B662B680F30888704778
:10020000704700BFFEE700BFFEE700BFFEE700BF8C
:10021000FEE7704770477047704700000CB500203C
:10022000019000906C48006840F480306A49086092
:1002300000BF6948006800F4003000900198401C3D
:100240000190009818B90198B0F5A06FF1D16248FB
:10025000006800F4003010B10120009001E000209F
:1002600000900098012843D15C48006840F01000DD
:100270005A4908600846006820F0030008600846F4
:10028000006840F0020008605348406852494860E6
:100290000846406848600846406840F4806048600E
:1002A0000846406820F47C1048600846406840F4E6
:1002B000E81048600846006840F08070086000BFA1
:1002C0004548006800F000700028F9D042484068B6
:1002D00020F00300404948600846406840F00200B2
:1002E000486000BF3C48406800F00C000828F9D185
:1002F0000CBD10B5FFF792FF10BD10B53648006871
:1003000040F001003449086008464068344908401C
:100310003149486008460068324908402E49086063
:100320000846006820F4802008600846406820F4F1
:10033000FE0048604FF41F008860FFF7DAFF4FF0BF
:1003400000602949086010BD10B50021002000227E
:10035000214B5B6803F00C0121B1042906D0082968
:1003600028D107E0214B224C236027E01F4B204C73
:10037000236023E0184B5B6803F47010164B5B6836
:1003800003F48032022303EB904022B9194B43431C
:10039000174C23600DE0104B5B6803F4003323B16E
:1003A000144B4343124C236003E0104B4343104C67
:1003B000236003E00D4B0E4C236000BF00BF064BD3
:1003C0005B68C3F303130C4CE15C094B1B68CB4027
:1003D000074C236010BD00000010024000200240C6
:1003E0000000FFF8FFFFF6FE08ED00E000127A00C3
:1003F0000000002000093D00040000200EB502208E
:1004000002F042F902F0D0F8022002F027FA0120AF
:1004100002F024FA02F0C6FE02F0E0FE002141F6EE
:100420001F4002F003FF4FF4E13002F0A3FA4FF453
:100430006131482004F0D8FC4FF4E13003F0C2F9F8
:1004400002F038FB02F083FB02F010FC03F0FDF831
:10045000002009F048FC04F0BEFB4FF6FF7050236B
:10046000A02200210090084604F08EF800200C2104
:100470004FF6FF724FF47843CDE90021029047A276
:100480002421142004F000FA4FF47A7002F0C9F825
:1004900003F0E6FD03F0F8FD00200C214FF6FF729B
:1004A0004FF47843CDE90021029040A2242114208A
:1004B00004F0EAF94FF47A7002F0B3F84FF6FF70E7
:1004C0005023A02200210090084604F05DF800208F
:1004D0000C214FF6FF724FF47843CDE900210290D2
:1004E00037A22421142004F0CFF94FF47A7002F0DF
:1004F00098F84FF6FF705023A02200210090084684
:1005000004F042F801203249087032480EF017FB1F
:10051000002130480EF0B3FC88B901202C49087046
:1005200000200C214FF6FF724FF47843CDE90021F3
:10053000029029A22421142004F0A6F910E0002042
:100540000C214FF6FF724FF47843CDE90021029061
:1005500026A22421142004F097F900201C490870D9
:100560004FF47A7002F05DF84FF6FF705023A0222E
:1005700000210090084604F007F802F041FA41F625
:100580001F41632003F0F0F807E008F0D3FF1048A4
:10059000007810B10F480EF089FCF6E76D707536E3
:1005A00030353020696E6974000000006D7075365A
:1005B000303530207375636365737321000000006C
:1005C000564C3533313020696E69742E2E2E000062
:1005D00060000020D0050020564C353331302073A8
:1005E0007563636573732121210000004E4F20560F
:1005F0004C3533313021212100000000094880476B
:1006000009480047FEE7FEE7FEE7FEE7FEE7FEE7F4
:10061000FEE7FEE7FEE7FEE704480549054A064B0C
:1006200070470000FB020008ED000008280A0020C7
:1006300028100020280C0020280C002031490143FC
:10064000314A1160704770B5002100230F22C47831
:1006500004B32D4C246804F4E064C4F5E064210A7A
:10066000C1F10403CA40447804FA03F184781440C9
:1006700021430901254C0678A155047804F01F0593
:100680000124AC4005786D11AD0005F1E025C5F8F9
:10069000004109E0047804F01F050124AC401C4D22
:1006A0000678761145F8264070BD1A4A0A40024382
:1006B000154B1B1F1A60704739B1134A121D12687F
:1006C0000243114B1B1D1A6006E00F4A121D1268EF
:1006D00082430D4B1B1D1A607047042808D14FF050
:1006E000E021096941F004014FF0E022116107E0C7
:1006F0004FF0E021096921F004014FF0E02211617F
:10070000704700000000FA050CED00E000E400E096
:1007100080E100E080FFFF1F10B50446FA488442E4
:1007200008D10121401500F0E3FD0021601500F023
:10073000DFFD17E0F548844208D10121001500F0E3
:10074000D7FD0021201500F0D3FD0BE0F0488442D6
:1007500008D10121C80300F0CBFD00214FF4004077
:1007600000F0C6FD10BD30B50246002000235068E1
:10077000E84C20400D790C6844EA05242043506081
:100780009068E54C2040D1E902542C434D7944EA6D
:10079000450420439060D06A20F470000C7C641EF5
:1007A000E4B2234340EA0350D06230BD002101602F
:1007B000017141718160C16001210174704721B1F3
:1007C000826842F00102826003E0826822F0010246
:1007D0008260704721B1826842F48072826003E0D7
:1007E000826822F480728260704710B50023CBB219
:1007F0001AB144681C43446002E044689C4344606E
:1008000010BD816841F008018160704701460020F9
:100810008A6802F008020AB1012000E00020704757
:10082000816841F0040181607047014600208A68B8
:1008300002F004020AB1012000E00020704721B15B
:10084000826842F4A002826003E0826822F4A0027F
:1008500082607047014600208A6802F480020AB173
:10086000012000E00020704710B50A460021002357
:10087000416821F46041531E41EA4331416010BD9B
:1008800021B1426842F40062426003E0426822F40F
:10089000006242607047F0B504460D46002000211A
:1008A000092D11DDE068A5F10A0606EB46070726CB
:1008B00006FA07F18843A5F10A0606EB460603FA95
:1008C00006F10843E0600CE0206905EB45070726C8
:1008D00006FA07F1884305EB450603FA06F10843DB
:1008E0002061072A0FDA606B561E06EB86071F266B
:1008F00006FA07F18843561E06EB860605FA06F14E
:100900000843606322E00D2A0FDA206BD61F06EB46
:1009100086071F2606FA07F18843D61F06EB8606D0
:1009200005FA06F10843206310E0E06AA2F10D0623
:1009300006EB86071F2606FA07F18843A2F10D068B
:1009400006EB860605FA06F10843E062F0BD21B128
:10095000826842F48012826003E0826822F480128E
:10096000826070470146C86C80B2704766484C3060
:100970000068704721B1426842F48062426003E03F
:10098000426822F480624260704721B1426842F4BA
:100990008052426003E0426822F480524260704715
:1009A0000A460021816821F4E041114381607047CB
:1009B00021B1826842F40042826003E0826822F43E
:1009C00000428260704721B1826842F40212826064
:1009D00003E0826822F40212826070470146002020
:1009E0008A6802F400120AB1012000E0002070477A
:1009F000F0B504461546002000220026092911DD25
:100A0000E068A1F10A0707EB470C072707FA0CF289
:100A10009043A1F10A0707EB470703FA07F21043D7
:100A2000E0600CE0206901EB410C072707FA0CF2AB
:100A3000904301EB410703FA07F210432061A06BDA
:100A4000C0F30156EF1C06F1010CA7EB0C0707EBF6
:100A5000870C1F2707FA0CF29043EF1C06F1010CDC
:100A6000A7EB0C0707EB870701FA07F21043A06317
:100A7000F0BD10B50A4600210023816B21F440111E
:100A8000531E41EA0351816310BD08B50023009352
:100A90000090009B0B440093009B1A6008BD08B5B2
:100AA000024600200090009201F12800009B1844AB
:100AB00000900098006880B208BD0A460021416895
:100AC000164B194011434160704741628262704782
:100AD0000A460021416821F01F011143416070471F
:100AE00040B109490831096841F40001064A083259
:100AF000116007E004490831096821F40001024A45
:100B000008321160704700000024014000280140B5
:100B1000003C0140FFFEF0FFFDF7F1FFFFFD3FFF4E
:100B20000246002013680B400BB1012000E00020BA
:100B30007047CA430260704770B502460020002328
:100B400000240B125568CEB205EA060415681D4054
:100B500015B10CB1012000E0002070BD00220A1286
:100B6000D343036070470000002044490860091D1A
:100B70000860091D0860091D086041483F4914319B
:100B80000860704700213D498279002A3AD00A4620
:100B9000126803689A430B461A600A1D12680368BC
:100BA0009A430B1D1A60027911440A6803681A43BC
:100BB0000A60324A0832126803689A432F4B08339E
:100BC0001A601A1D126803689A432C4B0C331A6082
:100BD0004279102A0ED11A1F126803681A43274B54
:100BE00008331A601A1D126803681A43234B0C332A
:100BF0001A600DE02149427911440A6803681A43DA
:100C00000A6005E0027911440A6803689A430A60A1
:100C100070470021016001710C2141710021817137
:100C200070471649103109680143144A10321160A7
:100C3000704701460020114A143212680A400AB176
:100C4000012000E0002070470C4914310860704713
:100C5000014600200022094B1B6803EA0102074BF2
:100C600014331B680B4013B10AB1012000E00020CF
:100C700070470249143108607047000000040140C9
:100C8000FFFF0F0010B50446CC48844208D1012173
:100C9000042000F02DFB0021042000F029FB46E099
:100CA000C748844208D10121082000F021FB00211F
:100CB000082000F01DFB3AE0C248844208D101211F
:100CC000102000F015FB0021102000F011FB2EE099
:100CD000BD48844208D10121202000F009FB0021F9
:100CE000202000F005FB22E0B848844208D1012111
:100CF000402000F0FDFA0021402000F0F9FA16E053
:100D0000B348844208D10121802000F0F1FA00218B
:100D1000802000F0EDFA0AE0AE48844207D10121BC
:100D2000801500F0E5FA0021A01500F0E1FA10BDF1
:100D300010B50121084600F0DBFA0021012000F087
:100D4000D7FA10BD2DE9F04102460025002600200B
:100D500000230024002791F803C00CF00F0591F840
:100D600003C00CF0100CBCF1000F03D091F802C0CE
:100D70004CEA050591F800C0BCF1000F31D01468B1
:100D800000202BE04FF0010C0CFA00F3B1F800C08A
:100D90000CEA03069E4220D183004FF00F0C0CFAA0
:100DA00003F7BC4305FA03FC4CEA040491F803C0C2
:100DB000BCF1280F06D14FF0010C0CFA00FCC2F870
:100DC00014C00AE091F803C0BCF1480F05D14FF000
:100DD000010C0CFA00FCC2F810C0401C0828D1D34A
:100DE0001460B1F800C0BCF1FF0F34DD546800207E
:100DF0002EE000F1080C4FF0010808FA0CF3B1F8EE
:100E000000C00CEA03069E4221D183004FF00F0C74
:100E10000CFA03F7BC4305FA03FC4CEA040491F80E
:100E200003C0BCF1280F05D100F1080C08FA0CF83A
:100E3000C2F8148091F803C0BCF1480F07D100F14B
:100E4000080C4FF0010808FA0CF8C2F81080401C9A
:100E50000828CED35460BDE8F0814FF6FF710180C1
:100E6000022181700421C1707047024600209368FE
:100E70000B400BB1012000E000207047014688685C
:100E800080B2704702460020D3680B400BB10120AE
:100E900000E0002070470146C86880B270470161D9
:100EA0007047416170470AB1016100E041617047DC
:100EB000C16070474FF480320A4382618161826170
:100EC00082698269704702460020434B18684FF6DA
:100ED0008073184040EA021008433F4B1860704787
:100EE0003E49C8617047F0B50A460023002400213E
:100EF000002500F00046B6F1004F02D1364EF169F0
:100F000001E0354E7168C0F3034583B200F440162A
:100F1000B6F5401F08D121F070612F4E766826F09B
:100F200070662D4F7E6012E000F48016B6F5801FCB
:100F300006D1032606FA05F4A14341F0706106E0EC
:100F4000460D360103FA06F6B14341F0706122B155
:100F5000460D360103FA06F6314300F00046B6F1BD
:100F6000004F02D11C4EF16101E01B4E7160F0BDDB
:100F700030B500228B071C0F0F2303FA04F2164B27
:100F800008338C1053F824309343134C08348D10DD
:100F900044F8253023468C1053F824308C07240F56
:100FA00000FA04F423430C4C08348D1044F8253027
:100FB00030BD0A49DC31086070470000000801407C
:100FC000000C0140001001400014014000180140D5
:100FD000001C0140002001400000014000002042B0
:100FE000DF48006840F00100DD49086008464068BD
:100FF000DC490840DA49486008460068DA49084098
:10100000D74908600846006820F480200860084638
:10101000406820F4FE0048604FF41F00886070476D
:10102000CF49096821F48031CD4A11601146096821
:1010300021F480211160B0F5803F03D0B0F5802FFE
:101040000ED106E0C649096841F48031C44A1160F6
:1010500007E0C349096841F4A021C14A116000E0DA
:1010600000BF00BF704710B50146002200230020DA
:101070004A11012A02D1BA4C236806E0022A02D1A1
:10108000B74C236A01E0B64C636A01F01F020124E9
:1010900094401C400CB1012000E0002010BD38B588
:1010A000002000900024002500BF3120FFF7DBFF67
:1010B00005460098401C00900098B0F5A06F01D044
:1010C000002DF2D03120FFF7CEFF08B1012400E05F
:1010D0000024204638BD01460020A14A106820F0B7
:1010E000F80040EAC10010607047A04908607047EE
:1010F000024600209A4B586820F47C1042EA010313
:101100001843974B586070479849086670470146E6
:101110000020934A506820F0030008435060704755
:101120008F48406800F00C007047014600208C4A50
:10113000506820F0F00008435060704701460020DE
:10114000874A506820F4E0600843506070470146C9
:101150000020834A506820F4605040EAC10050608B
:10116000704729B17E4A527A02437D4B5A7204E09D
:101170007B4A527A82437A4B5A7270477B49D83104
:101180000860704701460020754A506820F44040CE
:101190000843506070470021714A20321170704A34
:1011A00082F82010012802D004280AD104E001218D
:1011B0006B4A2032117005E00521694A2032117016
:1011C00000E000BF00BF704769490860704764498C
:1011D000096A0143624A11627047654944390860EF
:1011E000704730B500210022002400235C4D6D685B
:1011F00005F00C0121B1042905D0082923D105E00F
:101200005C4D056022E05B4D05601FE0544D6D684C
:1012100005F47012524D6D6805F48034022505EB1B
:1012200092421CB9544D554305600BE04C4D6D681E
:1012300005F400351DB1504D5543056002E04D4D9C
:101240005543056002E04B4D056000BF00BF444DB3
:101250006D6805F0F0010909484D6B5C0568DD40DB
:1012600045603F4D6D6805F4E061090A434D6B5CD4
:101270004568DD4085603A4D6D6805F46051C90AE6
:101280003E4D6B5C4568DD40C560354D6D6805F4CD
:101290004041890B3A4D6B5CC568B5FBF3F50561C0
:1012A00030BD29B12E4A526902432D4B5A6104E0E8
:1012B0002B4A526982432A4B5A61704729B1284A06
:1012C00092690243264B9A6104E0254A926982435F
:1012D000234B9A61704729B1214AD2690243204BBE
:1012E000DA6104E01E4AD26982431D4BDA6170471D
:1012F00029B11B4AD2680243194BDA6004E0184A4C
:10130000D2688243164BDA60704729B1144A1269D9
:101310000243134B1A6104E0114A12698243104BD5
:101320001A61704712494039086070470F49C86414
:1013300070470B49C87170470948406A40F0807097
:1013400007494862704701460020054A92680A40F2
:101350000AB1012000E000207047014988727047FF
:10136000001002400000FFF8FFFFF6FE00004242BE
:101370008004424200127A0000093D00680000200B
:101380007800002010B50446FE48844208D10121AF
:10139000C014FFF7ADFF0021E014FFF7A9FFC4E080
:1013A000B4F1804F08D101210846FFF7AEFF0021BC
:1013B0000120FFF7AAFFB8E0F348844208D10121D9
:1013C0000220FFF7A2FF00210220FFF79EFFACE002
:1013D000EE48844208D101210420FFF796FF002146
:1013E0000420FFF792FFA0E0E948844208D10121E0
:1013F0000820FFF78AFF00210820FFF786FF94E00E
:10140000E448844208D101211020FFF77EFF00212B
:101410001020FFF77AFF88E0DF48844208D10121DD
:101420002020FFF772FF00212020FFF76EFF7CE0F5
:10143000DA48844208D101214014FFF759FF002106
:101440006014FFF755FF70E0D548844209D10121AF
:10145000C804FFF74DFF00214FF40020FFF748FFBD
:1014600063E0D048844209D101210805FFF740FF1D
:1014700000214FF48010FFF73BFF56E0CA4884423A
:1014800009D101214805FFF733FF00214FF4001077
:10149000FFF72EFF49E0C548844208D101214020D2
:1014A000FFF733FF00214020FFF72FFF3DE0C0484A
:1014B000844208D101218020FFF727FF00218020EE
:1014C000FFF723FF31E0BB48844208D1012180159A
:1014D000FFF71BFF0021A015FFF717FF25E0B64817
:1014E000844209D101210804FFF702FF00214FF4D3
:1014F0008030FFF7FDFE18E0B048844209D1012199
:101500004804FFF7F5FE00214FF40030FFF7F0FE2E
:101510000BE0AB48844208D101218804FFF7E8FEC4
:1015200000214FF48020FFF7E3FE10BD0022028867
:10153000944B98420ED0994B98420BD0B0F1804F0B
:1015400008D0914B984205D0904B984202D0904BD6
:10155000984204D14FF68F731A404B881A438D4B33
:10156000984207D08C4B984204D04FF6FF431A4064
:10157000CB881A4302808B8883850B880385814B37
:1015800098420BD0854B984208D08B4B984205D09F
:101590008A4B984202D08A4B984201D10B7A03863B
:1015A00001238382704770B5002400220023058C3C
:1015B0004FF6FE7635400584028C8388048B4FF607
:1015C0008F752C40B51E2C400D882C43751E2A406B
:1015D0000D892A434D882A436A4DA8420BD06F4D8E
:1015E000A84208D0744DA84205D0744DA84202D03C
:1015F000734DA84213D14FF6F7752A404D892A43FF
:101600004FF6FB752A408D882A434FF6FF652B4025
:101610004FF6FF552B408D892B43CD892B4383807B
:101620000483CD888586028470BD70B500240022B5
:101630000023058C4FF6EF7635400584028C8388B5
:10164000048B48F6FF752C404FF6FF452C400D8863
:101650004FF6FF7606EA05252C434FF6DF752A4044
:101660000D8906EA05152A434D8806EA05152A4321
:10167000444DA84202D0494DA8421DD14FF67F7576
:101680002A404D894FF6FF7606EA05152A434FF6A4
:10169000BF752A408D8806EA05152A434FF6FF35A7
:1016A0002B404FF2FF752B408D8906EA85052B43B1
:1016B000CD8906EA85052B4383800483CD88058781
:1016C000028470BD70B5002400220023058C4FF603
:1016D000FF6635400584028C8388848B4FF68F75B6
:1016E0002C404FF6FC752C400D882C434FF6FF55CF
:1016F0002A400D894FF6FF7606EA05252A434D88D4
:1017000006EA05252A431F4DA84202D0234DA842D0
:101710001DD14FF2FF752A404D894FF6FF7606EA3C
:1017200005252A434FF6FF352A408D8806EA052510
:101730002A434EF6FF752B404DF6FF752B408D89E1
:1017400006EA05152B43CD8906EA05152B43838050
:101750008483CD888587028470BD70B50022002304
:101760000024058C4EF6FF7635400584038C848872
:10177000828B48F6FF752A404FF6FF452A400D88B8
:1017800020E00000002C0140000400400008004060
:10179000000C0040001000400014004000340140E4
:1017A000004C01400050014000540140001800402E
:1017B000001C004000200040004001400044014067
:1017C000004801404FF6FF7606EA05252A434DF60C
:1017D000FF752B400D8906EA05352B434D8806EA37
:1017E00005352B43FA4DA84202D0FA4DA84208D144
:1017F0004BF6FF752C408D894FF6FF7606EA85156E
:101800002C4384808283CD88A0F84050038470BD2F
:10181000828B4FF2FF331A408283828B4FF6FF7325
:1018200003EA01231A4382837047F0B50C4615463C
:10183000002200210026078C4EF6FF7C07EA0C07E9
:101840000784828B018C4FF6FF7707EA043640F657
:10185000FF473A404FF6FF7707EA05273A434FF62E
:10186000FF7707EA03373A43D94FB8420ED0D94F32
:10187000B8420BD0B0F1804F08D0D74FB84205D056
:10188000D64FB84202D0D64FB84206D14DF6FF77B8
:10189000394046F48057394305E047F6FF57394051
:1018A00044F48057394382830184F0BD828B4FF624
:1018B000F3731A408283828B0A4382837047F0B5A8
:1018C0000C461546002200210026078C4FF6FF6CBF
:1018D00007EA0C070784828B018C4FF6FF7707EA33
:1018E00004264FF60C773A404FF6FF7707EA0317C6
:1018F0002F433A43B64FB8420ED0B64FB8420BD042
:10190000B0F1804F08D0B44FB84205D0B34FB842C1
:1019100002D0B34FB84206D14FF6FF57394046F4D4
:101920008077394305E04FF2FF57394044F4807720
:10193000394382830184F0BD028B4FF2FF331A409A
:101940000283028B4FF6FF7303EA01231A430283DB
:101950007047F0B50C461546002200210026078C82
:101960004FF6EF7C07EA0C070784028B018C4FF6D9
:10197000FF7707EA041640F6FF473A404FF6FF7735
:1019800007EA03373A434FF6FF7707EA05273A435A
:101990008F4FB8420ED08F4FB8420BD0B0F1804F6E
:1019A00008D08D4FB84205D08C4FB84202D08C4F32
:1019B000B84206D14FF6DF77394046F01007394379
:1019C00005E04FF65F77394044F010073943028352
:1019D0000184F0BD028B4FF6F3731A400283028B31
:1019E0000A4302837047F0B50C46154600220021D9
:1019F000068C4FF6FE773E400684028B018C4FF634
:101A00000C7632407E1C06EA03162E433243704E9B
:101A1000B0420ED06F4EB0420BD0B0F1804F08D024
:101A20006D4EB04205D06D4EB04202D06C4EB04209
:101A300006D14FF6FD76314044F00106314305E012
:101A40004FF6F576314044F00106314302830184BC
:101A5000F0BD70B505460C465D4885420ED05D4828
:101A600085420BD0B5F1804F08D05B48854205D048
:101A70005A48854202D05A48854200D100E000BF52
:101A8000208850B92389A28861882846FFF7ABFFD8
:101A9000E1882846FFF79EFF25E0208804280AD128
:101AA0002389A28861882846FFF753FFE1882846EA
:101AB000FFF742FF17E0208808280AD12389A2886F
:101AC00061882846FFF7FBFEE1882846FFF7EEFE17
:101AD00009E02389A28861882846FFF7A6FEE188ED
:101AE0002846FFF795FE70BD2DE9F04105460C46EE
:101AF00000260127608808B9022600E00026A08899
:101B0000012801D1022700E001272088A0B92389FC
:101B1000A28861882846FFF766FFE1882846FFF71C
:101B200059FF23893A4631462846FFF712FFE188DC
:101B30002846FFF701FF13E02389A2886188284621
:101B4000FFF707FFE1882846FFF7F6FE23893A46AC
:101B500031462846FFF747FFE1882846FFF73AFF5E
:101B6000BDE8F0810A884B881A438B881A43CB88DA
:101B70001A430B891A434B891A438B891A43A0F8DD
:101B8000442070474FF6FF71818000210180C180A1
:101B90004180017270470021018041808180C180B5
:101BA000018141818181C181704700210180418093
:101BB000012181800021C1800181704700210180C5
:101BC00041808180C1800181418181817047000015
:101BD000002C014000340140000400400008004097
:101BE000000C004021B1028842F00102028004E0B2
:101BF00002884FF6FE731A400280704731B1B0F888
:101C0000442042F40042A0F8442005E0B0F844200B
:101C1000C2F30E02A0F8442070471AB183890B4327
:101C2000838102E083898B4383817047818270477F
:101C300041EA0203A0F8483070471AB183890B4388
:101C4000838102E083898B438381704701894FF64A
:101C5000F8721140018170470A46002101894FF650
:101C60008F73194011430181704730B504460D460A
:101C700029462046FFF7F0FF208940F00700208129
:101C800030BD2DE9F04104460D4616461F46602D35
:101C900006D13B46012231462046FFF75AFE05E0B9
:101CA0003B46012231462046FFF79DFE294620464D
:101CB000FFF7D2FF208940F007002081BDE8F081C6
:101CC00030B50C4600210189C9B24FF6FF7505EA0F
:101CD0000325154325432943018130BD2DE9F041FA
:101CE00005460E4617469846002443463A46314676
:101CF0002846FFF7E5FF2C894FF6F870044044F0C2
:101D000007044FF68F70044044F070042C81BDE846
:101D1000F081F0B504460D4616461F463B46324656
:101D200029462046FFF7CCFF208940F480402081DF
:101D3000F0BD0185828270470A46002101884FF676
:101D40008F731940114301807047F0B50C4615465A
:101D50001E460021002200230189028B038C4FF6CE
:101D6000F877394021434FF6FC473A4040F20117DB
:101D70003A434FF6DD773B404FF6FF7707EA061709
:101D80002F433B43018102830384F0BD0A460021B7
:101D9000018B4FF68F7319401143018370470A4638
:101DA0000021018B48F6FF7319404FF6FF7303EAD9
:101DB00002231943018370470A460021818B4FF6A5
:101DC0008F7319401143818370470A460021818B2C
:101DD00048F6FF7319404FF6FF7303EA02231943D5
:101DE0008183704721B1028842F08002028004E0C2
:101DF00002884FF67F731A400280704721B18288B3
:101E000042F00402828004E082884FF6FB731A409D
:101E10008280704721B1828842F00802828004E00B
:101E200082884FF6F7731A408280704721B182880A
:101E300042F00102828004E082884FF6FE731A406D
:101E4000828070470A460021018B4FF6F7731940D4
:101E50001143018370470A460021018B4FF2FF7343
:101E600019404FF6FF7303EA0223194301837047B9
:101E70000A460021818B4FF6F77319401143818385
:101E800070470A460021818B4FF2FF7319404FF6CD
:101E9000FF7303EA02231943818370470A46002136
:101EA000018B4FF6FB7319401143018370470A46BB
:101EB0000021018B4FF6FF3319404FF6FF7303EA01
:101EC00002231943018370470A460021818B4FF694
:101ED000FB7319401143818370470A460021818BAF
:101EE0004FF6FF3319404FF6FF7303EA02231943FD
:101EF000818370470A460021018B4FF67F7319409A
:101F00001143018370470A460021018BC1F30E0182
:101F10004FF6FF7303EA02231943018370470A4611
:101F20000021818B4FF67F731940114381837047E5
:101F30000A460021818BC1F30E014FF6FF7303EABD
:101F400002231943818370470A460021018C4FF612
:101F5000FD7319401143018470470A460021018C2A
:101F60004FF6F77319401143018470470A46002168
:101F7000018C4FF6DF7319404FF6FF7303EA02132B
:101F80001943018470470A460021018C4FF67F7384
:101F900019404FF6FF7303EA021319430184704797
:101FA0000A460021018C4FF6FF5319404FF6FF738C
:101FB00003EA02231943018470470A460021018C79
:101FC0004FF2FF7319404FF6FF7303EA02231943E0
:101FD000018470470A460021018C4DF6FF731940B9
:101FE0004FF6FF7303EA023319430184704730B59B
:101FF000002301248C40A3B2048C9C430484048CF1
:1020000002FA01F5ADB22C43048430BD30B5002393
:1020100004248C40A3B2048C9C430484048C02FAF4
:1020200001F5ADB22C43048430BD70B503460020E9
:1020300000241846183001258D40ACB21D8CA543F4
:102040001D8409B1082909D100EB6100056825F05C
:10205000700505600568154305600EE00D1FC5F3AA
:102060004E052844056825F4E045056005684FF6EF
:10207000FF7606EA02263543056070BD21B102886D
:1020800042F00202028004E002884FF6FD731A401B
:102090000280704721B1028842F00402028004E00D
:1020A00002884FF6FB731A400280704721B1828884
:1020B00042F08002828004E082884FF67F731A40EB
:1020C0008280704702884FF6F7731A4002800288B8
:1020D0000A430280704782884FF68F731A408280CD
:1020E00082880A438280704702894FF6F8731A404B
:1020F000028102890A430281704702894FF67F7389
:102100001A40028102890A43028170478184704724
:102110008185704781867047018770478187704746
:10212000A0F84010704702884FF6FF431A40028023
:1021300002880A43028070470146888E7047014634
:10214000088F70470146888F70470146B1F84000FC
:1021500070470146888C70470146088D70470246DB
:102160000020138A0B400BB1012000E000207047D3
:10217000CA430282704730B5024600200023002483
:10218000158A05EA0103958905EA010413B10CB12A
:10219000012000E0002030BDCA43028270470000E9
:1021A00010B50446FB48844209D101218803FFF79A
:1021B0009FF800214FF48040FFF79AF832E0F6488C
:1021C000844209D101214804FFF79FF800214FF410
:1021D0000030FFF79AF825E0F048844209D1012148
:1021E0008804FFF792F800214FF48020FFF78DF864
:1021F00018E0EB48844209D10121C804FFF785F8B3
:1022000000214FF40020FFF780F80BE0E5488442FE
:1022100008D101210805FFF778F800214FF480105C
:10222000FFF773F810BD2DE9F04786B005460E465E
:102230000024A24600BFA1460027B08900B100BF1C
:102240002F462C8A4CF6FF700440F08804432C8201
:10225000AC894EF6F3100440B08831890843718987
:1022600008430443AC81AC8A4FF6FF400440B08978
:102270000443AC8201A8FEF7B4FFC648874202D1EE
:10228000DDF810A001E0DDF80CA0A88900F4004002
:1022900040B10AEBCA0000EB0A1031684900B0FBFC
:1022A000F1F807E00AEBCA0000EB0A103168890078
:1022B000B0FBF1F86420B8FBF0F0040120096421C0
:1022C00001FB1089A88900F4004040B1322000EBE6
:1022D000C900B0FBF1F000F00700044308E0322031
:1022E00000EB09106421B0FBF1F000F00F00044393
:1022F0002C8106B0BDE8F0874FF416510160002133
:102300008180C18001810C21418100218181704740
:1023100010B502460020108A4FF2FF0318400B88C8
:102320004C8823438C882343CC8823431843108252
:1023300010BD0021018041808180C180704721B1A2
:10234000828942F40052828104E082894DF6FF7353
:102350001A4082817047F0B503460024002600250C
:10236000002040F66A17B94200D100BF1846C1F3F9
:10237000421401F01F06012707FA06F5012C01D1CE
:102380000C3004E0022C01D1103000E014301AB1FE
:1023900007682F43076002E00768AF430760F0BD9E
:1023A0001AB1838A0B43838202E0838A8B43838240
:1023B0007047028A4FF6F0731A400282028A0A437B
:1023C0000282704782894FF2FF731A4082818289AC
:1023D0000A438281704721B1828942F002028281E0
:1023E00004E082894FF6FD731A4082817047028AA9
:1023F0004FF6DF731A400282028A0A430282704754
:1024000021B1028A42F48042028204E0028A4BF641
:10241000FF731A4002827047C1F30802828070473E
:1024200001468888C0F308007047818941F00101A6
:1024300081817047028BD2B20283028B42EA012271
:1024400002837047028B02F47F420283028B0A43AD
:102450000283704721B1828A42F02002828204E026
:10246000828A4FF6DF731A408282704721B1828AD6
:1024700042F01002828204E0828A4FF6EF731A4023
:102480008282704721B1828A42F00802828204E08F
:10249000828A4FF6F7731A408282704721B182898F
:1024A00042F40042828103E08289C2F30E028281FB
:1024B000704721B1828A42F40062828204E0828AFB
:1024C0004FF2FF731A4082827047828A4FF6FB7385
:1024D0001A408282828A0A438282704721B1828AAC
:1024E00042F00202828204E0828A4FF6FD731A40B3
:1024F0008282704702460020B1F5007F00D100BF04
:1025000013880B400BB1012000E00020704701F45C
:102510000072B2F5007F00D100BFCA43028070474D
:1025200070B50246002400230025002040F66A16FC
:10253000B14200D100BFC1F3421501F01F030126D3
:1025400006FA03F3012D02D19689334006E0022DED
:1025500002D1168A334001E0968A33400C120126DC
:1025600006FA04F41688344013B10CB1012000E0DF
:10257000002070BD10B50022002340F66A14A1426D
:1025800000D100BF0A1201249440A3B2DC430480AE
:1025900010BD0000003801400044004000480040E9
:1025A000004C00400050004010B56FF00400FEF7F2
:1025B00094F82E4800682E49B0FBF1F02D490870C0
:1025C0000846007800EB4001C1EBC0104FF6FF71E8
:1025D00001EAC0002849088010BD0146254A12784A
:1025E0004A434FF0E0235A6100229A611A46126969
:1025F00042F001021A6100BF4FF0E022106900F0C2
:1026000001021AB100F48032002AF5D04FF0E02226
:10261000126922F001024FF0E0231A6100229A6150
:1026200070470146144A12884A434FF0E0235A612A
:1026300000229A611A46126942F001021A6100BF33
:102640004FF0E022106900F001021AB100F480326C
:10265000002AF5D04FF0E022126922F001024FF07B
:10266000E0231A6100229A617047000000000020F8
:1026700000127A007C0000207E000020A34A0A405D
:102680000243A34B1A6070470146072323EA010265
:1026900012029F4B1B1D18684FF6FF0318409D4BFD
:1026A000184310439A4B1B1D186070472DE9F041E9
:1026B0000746884614461D462846FFF7E5FFC5F144
:1026C000040007FA00F60F20284100EA080006433C
:1026D00006F00F06E21704EBD2625211920002F1EB
:1026E000E022D2F800212146E31704EBD3635B110B
:1026F000A4EB431C012303FA0CF31A432046E3170F
:1027000004EBD3635B119B0003F1E023C3F80021CA
:102710008148005D40EA06107F490855BDE8F08118
:1027200070B504460B46CE1701EB9676C6F38700CC
:10273000CE1701EB9676B610A1EB8606B606350EDF
:10274000764B9B6943F00103744EB3614FEAB63395
:1027500053F820300F26AE40B343714E46F8203078
:10276000334653F8203004FA05F61E436C4B43F809
:1027700020606C4B1B6801268E403343694E3360EA
:1027800002F0010343B1674B0C331B6801268E40F6
:102790003343644E0C36336002F0020343B1614BA5
:1027A00008331E6801238B401E435E4B08331E60B6
:1027B00070BD00B5002059490861C8601420486107
:1027C00000208861C8610846006840F00100086088
:1027D0000846406854490840504948600846006827
:1027E000524908404D4908600846006820F480209E
:1027F00008600846406820F4FE00486000208860B9
:1028000000214FF00060FFF739FF00BD10B54048D0
:102810000830006840F004003D49083108603F4836
:10282000C06940F080503D49C8614148406840F46B
:1028300080703F4948600846006840F00400086026
:102840000846006840F002000860FDF7D3FC10BDA8
:102850003048001D2E49091D086070470146490691
:102860002E4A926942F001022C4B9A612C4A083A96
:10287000526822F0E0622A4B083B5A601A465268BE
:102880000A435A60704730B504460025FFF791FFB0
:102890002248006840F480302049086000BF1F488B
:1028A0000068400C0028FAD04FF480601B49486053
:1028B000A01EC4B20846406840EA8440486008460A
:1028C000406840F4803048601A48006840F03200A8
:1028D000184908601148006840F080700F4908608E
:1028E00000BF0E480068400E0028FAD00B48406830
:1028F00040F002000949486005E008484068C0F31C
:10290000870505F00305022DF7D130BD80FFFF1FBD
:1029100008ED00E00000FA0500E400E000100240CD
:1029200008000140000401400000FFF8FFFFF6FE30
:102930000070004000200240014600BF70472C4A52
:1029400012785AB900BF2B4A128802F04002002ABE
:10295000F9D0C2B2274B1B1D1A800AE000BF264ADD
:10296000128802F04002002AF9D0C2B2224B1B1D8D
:102970001A80704710B586B00446012144F2040065
:10298000FEF79CFC4FF40070ADF8140003208DF8A6
:10299000160018208DF8170005A91848FEF7D2F97F
:1029A0004FF48060ADF8140004208DF8170005A9DD
:1029B0001248FEF7C7F901940020ADF80800ADF801
:1029C0000A00ADF80C00ADF810000C20ADF80E00B8
:1029D00001A90948FFF727FC002240F225510648CB
:1029E000FFF7B9FC01210448FFF7A9FC06B010BDB0
:1029F0001A00002000480040003801400008014053
:102A000000B587B001214FF40170FEF757FC4FF479
:102A10000040FEF7B7FB1020ADF8040000208DF851
:102A2000070001A92148FEF78DF92148FDF774FE42
:102A3000002002908DF80C008DF80D004FF46020FE
:102A400004900020059001208DF8180002A9184874
:102A5000FDF789FE01211648FDF7B1FE07B000BD64
:102A600010B504460723012221461148FDF713FF44
:102A700001210F48FDF7E3FE00BF02210C48FEF7DD
:102A80004FF80028F9D00A48FDF76CFF10BD70B56B
:102A90000420FFF7E5FF40F6E44148434400E01717
:102AA00004EB10500513284670BD000000080140DB
:102AB0000024014000B587B001210846FEF70BFC59
:102AC00001210420FEF7FAFB0320ADF800000420EA
:102AD0008DF8030069466148FEF734F904A8FFF752
:102AE00051F80020ADF810004FF6FF70ADF814005B
:102AF0000020ADF81600ADF8120004A94FF0804098
:102B0000FEF714FD00231A4603214FF08040FFF723
:102B10001CF901A8FFF749F80A20ADF80C0001A93B
:102B20004007FEF796FF01218807FFF721FB0122EE
:102B300011469007FFF771F800214FF08040FFF732
:102B4000E5FA01218807FFF74DF807B000BD00B591
:102B500087B001210420FEF7BEFB01210820FEF70B
:102B6000ADFBC020ADF8000004208DF803006946DD
:102B70003B48FEF7E7F804A8FFF704F80020ADF89B
:102B800010004FF6FF70ADF814000020ADF81600ED
:102B9000ADF8120004A93348FEF7C8FC00231A461A
:102BA00003213048FFF7D1F801A8FEF7FEFF0A2005
:102BB000ADF80C0001A92B48FEF74BFF0121294875
:102BC000FFF7D6FA012211462648FFF726F8002122
:102BD0002448FFF79BFA01212248FFF703F807B0CA
:102BE00000BD0146022904D003290BD0042919D1C4
:102BF0000FE04FF08042928C10B200224FF08043E1
:102C00009A8411E0184A128810B20022164B1A80DA
:102C10000AE0144A2432128810B20022114B2433E5
:102C20001A8001E0002000BF00BF70470D4810303F
:102C300000880C481030008820F00100094910314C
:102C4000088070474FF08040008A4FF08040008A33
:102C500020F001004FF080410882704700080140D9
:102C6000000C0140000800402404004008B5012188
:102C70000C20FEF723FB4FF40040ADF800001020BD
:102C80008DF8030003208DF802006946F848FEF72E
:102C900059F80820ADF8000010208DF8030003203B
:102CA0008DF802006946F348FEF74CF808BD10B5F0
:102CB000EF48001D006820F07040ED49091D0860D4
:102CC0000846006840F0405008600120EA4908606A
:102CD000EA48D0F83C0108B9002010BD0120E849BD
:102CE0000860FFF77AFC0020E449C1F8BC01E24823
:102CF0008038006808B10020EFE70120FFF76DFC85
:102D00000020DF4908600120E7E710B5D848001D22
:102D1000006820F07040D649091D08600846006828
:102D200040F0405008600020D5490860D349C1F800
:102D3000BC010120FFF751FC0120D1490860CF49B7
:102D4000C1F8BC01FFF749FC10BD10B50024C8480C
:102D5000001D006820F07040C549091D0860084644
:102D6000006840F0004008600120C3490860FFF798
:102D700034FC0120C349C1F88C01FFF72EFC0AE0A6
:102D8000601CC4B2322C03DDFFF7BFFF002010BD72
:102D90000120FFF722FCB848803800680028EFD1F6
:102DA000B74908600120F2E710B50020B449086077
:102DB000AF48001D006820F07040AD49091D086053
:102DC0000846006840F0405008600020AB49C1F858
:102DD000BC010120FFF701FC0120A9490860FFF7B1
:102DE000FCFB0020A749C1F88C0110BD10B50020E4
:102DF000A34908609E48001D006820F070409C496F
:102E0000091D08600846006840F040500860012035
:102E10009A49C1F8BC01FFF7E0FB0120984908601E
:102E2000FFF7DBFB00209749C1F88C0110BD70B59E
:102E300004468F48001D006820F070408C49091D31
:102E400008600846006840F04050086000208C4947
:102E50000860002515E0E009874908606006040E57
:102E60000120FFF7BAFB01208649C1F88C01FFF76A
:102E7000B4FB0020824908600120FFF7AEFB681C0C
:102E8000C5B2082DE7DB70BD2DE9F04105460E46C1
:102E900017469846FFF70BFF10B90120BDE8F081F7
:102EA0006906080EFFF7C3FFFFF74FFF18B9FFF7DA
:102EB0002CFF0120F2E73046FFF7B9FFFFF745FF8F
:102EC00000240BE018F80400FFF7B1FFFFF73DFF07
:102ED00018B9FFF71AFF0020E0E7641CBC42F1DBE1
:102EE000FFF713FF0020D9E770B5054600246048BE
:102EF000001D006820F070405D49091D086008460B
:102F0000006840F000400860002616E000205C49A0
:102F100008600220FFF761FB01205A49C1F88C01CB
:102F20006006040E54488038006808B1601CC4B2C2
:102F30000220FFF752FB701CC6B2082EE6DB15B16B
:102F4000FFF732FF01E0FFF751FF204670BD2DE98A
:102F5000F04106460F4614461D46FFF7A8FE10B97D
:102F60000120BDE8F0817106080EFFF760FFFFF752
:102F7000ECFE18B9FFF7C9FE0120F2E73846FFF76B
:102F800056FFFFF7E2FEFFF792FE012101EB46013B
:102F9000C8B2FFF74CFFFFF7D8FE0DE0012C04D1BB
:102FA0000020FFF7A1FF287003E00120FFF79CFF3E
:102FB00028706D1C601EC4B2002CEFD1FFF7A5FE77
:102FC0000020CEE770B505460E460024FFF76FFEE1
:102FD0002846FFF72CFF641CFFF7B7FE3046FFF7CB
:102FE00026FF641CFFF7B1FEFFF761FE691CC8B243
:102FF000FFF71DFF641CFFF7A8FE0020FFF774FF1A
:103000000446FFF782FE204670BD2DE9F0410746D9
:10301000884615461E460024FFF749FE3846FFF74E
:1030200006FFFFF792FE4046FFF701FFFFF78DFE18
:10303000FFF73DFE791CC8B2FFF7F9FEFFF785FEEA
:1030400000BF0DE0681EA04204D00120FFF74CFF36
:10305000305503E00020FFF747FF3055601CC4B235
:10306000AC42EFDBFFF751FE2046BDE8F0810000E7
:1030700000080140000C0140BC0121420000214237
:103080008C812142008021422DE9F04180460D468D
:1030900016461F460024FFF70AFE4046FFF7C7FE0C
:1030A000FFF753FE2846FFF7C2FEFFF74EFE00BFB4
:1030B00006E0385DFFF7BBFEFFF747FE601CC4B2B9
:1030C000B442F6DBFFF721FE0120BDE8F08170B5C8
:1030D00005460E46144631462846FFF773FF20701A
:1030E000012070BD37B504460D4602AB01222946CA
:1030F0002046FFF7C9FF3EBD2DE9F8430746884645
:1031000014461D46089E6A4641463846FFF7DFFFD3
:1031100028B3601CFF2101FA00F0C4F10801294422
:10312000491EFF220A41104300F0FF09C5F10800C3
:1031300006FA00F0C6B2C4F1070006419DF800008F
:1031400000EA090000909DF80000304300909DF8CF
:10315000002041463846FFF7C5FFBDE8F883002050
:10316000FBE7F8B506460F4614461D466A46394643
:103170003046FFF7ACFF2DB10120A0409DF80010B4
:10318000084305E00120A0409DF8001021EA00005E
:10319000C0B200909DF8002039463046FFF7A2FFEC
:1031A000F8BD000008B501210820FEF787F84FF4AC
:1031B0008070ADF8000048208DF80300694605488E
:1031C000FDF7C0FD08BD0448006808B9012070473C
:1031D0000020FCE7000C01402081214208B50121BC
:1031E0001820FEF76BF84FF40C70ADF800001020BB
:1031F0008DF8030003208DF8020069463E48FDF774
:10320000A1FD4FF40040ADF8000010208DF8030040
:1032100003208DF8020069463848FDF793FD012030
:10322000374908603749C1F8900108BD30B589B009
:1032300005460C4601210D20FEF740F80121022031
:10324000FEF749F818208DF823000220ADF8200081
:1032500003208DF8220008A92748FDF773FD1820E8
:103260008DF823004020ADF8200003208DF82200C7
:1032700008A92548FDF766FD05A8FEF783FC002098
:10328000ADF81A00ADF81600ADF81850ADF81440BE
:10329000ADF81A0005A91D48FEF748F97020ADF8F1
:1032A00004000020ADF80C000120ADF8060000205D
:1032B000ADF80A0001A91548FEF775F901A91348F0
:1032C000FEF74BFA08211148FEF7BCFD08210F4814
:1032D000FEF7D7FD01210D48FEF784FD01210B48C3
:1032E000FEF780FC0020094934310880074940314D
:1032F000088009B030BD0000000C01400010014002
:10330000A4812142008021420008014000040040C5
:1033100010B54FF40061FE48FDF7C1FD4FF4805138
:10332000FB48FDF7BCFD4FF48051F948FDF7B9FDAE
:103330004FF40061F648FDF7B4FD10BD10B54FF431
:103340000061F348FDF7ABFD4FF48051F048FDF705
:10335000A8FD4FF48051EE48FDF7A1FD10BD10B55A
:103360004FF40061EA48FDF79AFD4FF40061E84828
:10337000FDF797FD10BD2DE9F04105462C464FF4B1
:103380000061E348FDF78DFD00261CE0274607F0AD
:103390008007802F04D17901DD48FDF780FD04E02E
:1033A0004FF48051DA48FDF77CFD6006040E4FF4BF
:1033B0000061D748FDF773FD4FF40061D448FDF775
:1033C00070FD701CC6B2082EE0DBBDE8F08110B5C0
:1033D0000446FFF79DFF7820FFF7CDFFFFF7BFFF03
:1033E0000020FFF7C8FFFFF7BAFF2046FFF7C3FF33
:1033F000FFF7B5FFFFF7A2FF10BD10B50446FFF7BA
:1034000087FF7820FFF7B7FFFFF7A9FF4020FFF7FE
:10341000B2FFFFF7A4FF2046FFF7ADFFFFF79FFFC6
:10342000FFF78CFF10BD70B504460D461DB1E0B22C
:10343000FFF7E3FF02E0E0B2FFF7C9FF70BD70B530
:1034400004460D4605F1B0000021FFF7ECFF102106
:1034500041EA14100021FFF7E6FF04F00F000021FD
:10346000FFF7E1FF70BD10B500218D20FFF7DBFFF6
:1034700000211420FFF7D7FF0021AF20FFF7D3FF73
:1034800010BD10B500218D20FFF7CDFF00211020C9
:10349000FFF7C9FF0021AE20FFF7C5FF10BD70B5D3
:1034A000002418E004F1B0000021FFF7BCFF002168
:1034B0000846FFF7B8FF00211020FFF7B4FF0025F2
:1034C00005E001210846FFF7AEFF681CC5B2802D5C
:1034D000F7DB601CC4B2082CE4DB70BD2DE9F047BB
:1034E00005460E46174698464FF000090024A7F1FE
:1034F000200000F0FF097F2D02DD0025B01CC6B2C0
:10350000B8F1100F12D031462846FFF798FF00247B
:103510000AE009EB49017F4A02EB4101085D012104
:10352000FFF781FF601CC4B2062CF2DBBDE8F08718
:1035300010B50246012000E050430B00A1F1010448
:10354000E1B2F9D110BD2DE9FF5F074691461E4655
:103550000E9D4FF0000A002435E0301B401EC1B222
:103560000A20FFF7E5FFB9FBF0F00A21B0FBF1F20A
:1035700001FB1208BAF1000F14D1701EA04211DD38
:10358000B8F1000F0CD1AB4605EBDB71491001FB24
:103590000471C8B22B4620220199FFF79FFF10E06B
:1035A0004FF0010AAB4605EBDB71491001FB0471DA
:1035B000C8B208F13001CAB22B460199FFF78EFF5D
:1035C00000BF601CC4B2B442C7DBBDE8FF9F2DE959
:1035D000F04104460F461546984600260FE0AA5DC6
:1035E000434639462046FFF779FF04F10800C4B28C
:1035F000782C02DD0024B81CC7B2701CC6B2A85DCE
:103600000028ECD1BDE8F0812DE9F04107460D46D8
:103610009046002629463846FFF711FF002403E0B4
:10362000701CC6B2601CC4B2102CF9DB681CC1B29D
:103630003846FFF704FF002403E0701CC6B2601C8C
:10364000C4B2102CF9DBBDE8F08108B501210420DB
:10365000FDF734FE4FF4C050ADF8000010208DF897
:10366000030003208DF8020069462948FDF76AFB34
:103670004FF4C0512648FDF712FC4FF44870FEF796
:10368000D0FF0021AE20FFF7CEFE00210846FFF755
:10369000CAFE00211020FFF7C6FE00214020FFF7E0
:1036A000C2FE0021B020FFF7BEFE00218120FFF7FF
:1036B000BAFE0021FF20FFF7B6FE0021A120FFF790
:1036C000B2FE0021A620FFF7AEFE0021A820FFF7E2
:1036D000AAFE00213F20FFF7A6FE0021C820FFF729
:1036E000A2FE0021D320FFF79EFE00210846FFF72F
:1036F0009AFE0021D520FFF796FE00218020FFF7DB
:1037000092FE0021D820FFF78EFE0021052003E065
:1037100000080140FA2C0108FFF785FE0021D9209E
:10372000FFF781FE0021F120FFF77DFE0021DA2066
:10373000FFF779FE00211220FFF775FE0021DB2044
:10374000FFF771FE00213020FFF76DFE00218D2074
:10375000FFF769FE00211420FFF765FE0021AF206E
:10376000FFF761FE08BD000070B505460C46134822
:10377000806940F400601149886111480580001F8C
:1037800004800F482038008840F001000C4920399F
:1037900008800846008840F04000088008482C381F
:1037A000008840F0010006492C39088002231922C4
:1037B00003211846FEF77AFF70BD0000001002409A
:1037C0002C2C014010B586B0044601210820FDF7DD
:1037D00075FD01218804FDF77EFD4FF48060ADF892
:1037E000140003208DF8160018208DF8170005A985
:1037F000FE48FDF7A7FA4FF40060ADF8140004206E
:103800008DF8170005A9F948FDF79CFA27208DF8D7
:10381000000000208DF8010001208DF802008DF8D5
:1038200003006846FCF70FFF01940020ADF8080084
:10383000ADF80A00ADF80C00ADF810000C20ADF8A2
:103840000E0001A9EA48FEF7EEFC012240F22551E4
:10385000E748FEF780FD0121E548FEF770FD06B060
:1038600010BD10B51421E3480BF08DFD0020E24996
:10387000087010BDE048007808B901207047DE48A4
:103880000078DE490978884203D10020DA490870BF
:10389000F4E7D9480078D94908700120EEE72DE90E
:1038A000F04105460E461746002428460BF012FD4F
:1038B00000F0FF0846450BDC00BF05E0A819401EDC
:1038C000005D3855601CC4B2285D0028F6D101E0C7
:1038D00000203870BDE8F081C549091D088000BF8F
:1038E000C349098801F040010029F9D0704730B57B
:1038F00002460B46002405E012F8010BFFF7ECFF2F
:10390000601C84B29C42F7DB30BD3EB5FFF7B2FFCE
:10391000002876D1BAA1B7480BF07AFC002871D004
:10392000B44880782D2875D1B248407A2D2830D1FE
:10393000B049897AC1F1300164225143AD4A127B0A
:10394000303A02EB8202A1EB4202AA49497B3039AC
:10395000501AC11700EB5171C91009B2A94A118060
:10396000A449C978C1F1300164225143A14A527976
:10397000303A02EB8202A1EB42029E49897930394A
:10398000501AC11700EB5171C91009B29E4A11803B
:10399000BFE09848407A292836DD9648407A40288A
:1039A00032DA9449497A303964225143914AD27AC1
:1039B000303A02EB820201EB42028E49097B303938
:1039C0005018C11700EB5171C91009B28D4A11800E
:1039D0008849C978C1F1300164225143854A52793E
:1039E000303A02EB8202A1EB4202824989793039F6
:1039F000501AC11700EB5171C91009B2824A1180E7
:103A000087E03AE1AAE005E000207E4908807E498F
:103A100008807EE077488078292875DD75488078B1
:103A2000402871DA7348007A2D282FD17149497ADC
:103A3000C1F13001642251436E4AD27A303A02EB2E
:103A40008202A1EB42026B49097B3039501AC1173F
:103A500000EB5171C91009B26A4A11806549897831
:103A6000303964225143634A1279303A02EB8202C0
:103A700001EB42025F49497930395018C11700EB18
:103A80005171C91009B2604A118042E05948007A68
:103A9000292833DD5748007A40282FDA5549097A1A
:103AA000303964225143534A927A303A02EB82020F
:103AB00001EB42024F49C97A30395018C11700EB67
:103AC0005171C91009B24F4A11804A498978303979
:103AD00064225143474A1279303A02EB820201EBE9
:103AE00042024449497930395018C11700EB5171ED
:103AF000C91009B2444A11800BE005E00020414999
:103B000008804149088004E000203E4908803E4981
:103B100008803D48B0F90000782802DD78203A4955
:103B200008803948B0F9000010F1780F03DA6FF01F
:103B30007700354908803348B0F90000782802DD65
:103B40007820304908802F48B0F9000010F1780F34
:103B500003DA6FF077002B4908808BE02BA1254812
:103B60000BF056FB70B16A4608212248FFF797FE1A
:103B7000002168460DF078FE04460DF0AFFE2549A1
:103B8000086077E024A11B480BF042FB28B16A468D
:103B900008211848FFF783FE6CE021A115480BF0BF
:103BA00037FB70B16A4608211248FFF778FE002102
:103BB00068460DF059FE04460DF090FE1A49086063
:103BC00058E01AA10B480BF023FB70B16A4608219C
:103BD0000848FFF764FE002168460DF045FE0446E4
:103BE0000DF07CFE1349086044E025E0000C014024
:103BF00000480040E40400208400002085000020EC
:103C0000663A00008800002086000020425F4B508A
:103C10005F793A0048000020425F4B495F793A00E3
:103C2000425F4B445F793A004C000020535F4B5099
:103C30005F793A00500000201EA120480BF0E8FAFE
:103C400070B16A4608211D48FFF729FE0021684629
:103C50000DF00AFE04460DF041FE1949086009E026
:103C600018A116480BF0D4FA20B16A46082113486F
:103C7000FFF715FEFFF7F5FD00BF3EBD10B540F2A2
:103C800025511248FEF74CFC90B1114800781428D9
:103C900002DB00200E4908700C48FEF7C1FB074903
:103CA0000B4A127888540A480078401C084908706A
:103CB00010BD0000535F4B495F793A00E4040020D7
:103CC00054000020535F4B445F793A0000480040A5
:103CD00084000020014691F90020002A01DD002027
:103CE0001EE091F90020002A01DA042018E091F981
:103CF0000120002A01DD012012E091F90120002AB3
:103D000001DA05200CE091F90220002A01DD0220F1
:103D100006E091F90220002A01DA062000E00720DF
:103D2000704770B505462846FFF7D4FF0446E81CE7
:103D3000FFF7D0FF44EAC00084B2A81DFFF7CAFF16
:103D400044EA801084B2204670BD70B588B002A9E4
:103D500005A803F06EFD0446072C3CD101A802F033
:103D6000DDFF05980EF06CFD064601990EF0C8FDCA
:103D700005460EF029FD059006980EF061FD0646F9
:103D800001990EF0BDFD05460EF01EFD0690079848
:103D90000EF056FD064601990EF0B2FD05460EF0F6
:103DA00013FD079005A804F054F8684602F0D3FF0D
:103DB000BDF80010029848430290BDF80010039827
:103DC00048430390BDF8001004984843049002A8AB
:103DD00004F0D2F800BF08B070BD2DE9F0430446EE
:103DE0000D46DDE907670021012041E0DFF804C648
:103DF0003CF81080A0F1010CDFF8F89529F81C8040
:103E000009F1160C3CF81090A0F1010CDFF8E485E4
:103E100008F1160828F81C9008F1160C3CF81090D0
:103E2000A0F1010C08F1160828F81C9008F1160CF6
:103E30003CF81090A0F1010C08F1160828F81C902D
:103E400008F1160C3CF81090A0F1010C08F11608CE
:103E500028F81C9008F1160C3CF81090A0F1010C09
:103E600008F1160828F81C9000F1010C0CF0FF0076
:103E70000A28BBDBDFF87CC5ACF81240ACF8285050
:103E8000ACF83E20ACF85430ACF86A60ACF8807006
:103E90000021002008E0DFF85CC53CF910C0614457
:103EA00000F1010C0CF0FF000A28F4DB4FF00A0CC3
:103EB00091FBFCFC0FFA8CFCDFF83885A8F814C0E5
:103EC000002100200AE0DFF82CC50CF1160C3CF9AB
:103ED00010C0614400F1010C0CF0FF000A28F2DB75
:103EE0004FF00A0C91FBFCFC0FFA8CF8DFF804C5CC
:103EF000ACF82A80002100200AE0DFF8F8C40CF1B9
:103F00002C0C3CF910C0614400F1010C0CF0FF00D6
:103F10000A28F2DB4FF00A0C91FBFCFC0FFA8CF83C
:103F2000DFF8D0C4ACF84080002100200AE0DFF8C0
:103F3000C4C40CF1420C3CF910C0614400F1010C06
:103F40000CF0FF000A28F2DB4FF00A0C91FBFCFC9E
:103F50000FFA8CF8DFF89CC4ACF8568000210020E2
:103F60000AE0DFF890C40CF1580C3CF910C0614431
:103F700000F1010C0CF0FF000A28F2DB4FF00A0CF4
:103F800091FBFCFC0FFA8CF8DFF868C4ACF86C808D
:103F9000002100200AE0DFF85CC40CF16E0C3CF953
:103FA00010C0614400F1010C0CF0FF000A28F2DBA4
:103FB0004FF00A0C91FBFCFC0FFA8CF8DFF834C4CC
:103FC000ACF88280BDE8F08338B5044603230222B2
:103FD0006B21D0200094FFF78FF838BD38B5044628
:103FE000022304221B21D0200094FFF785F838BD5E
:103FF00038B50446022304221C21D0200094FFF788
:104000007BF838BD10B50446234606226B21D0202C
:10401000FFF7A7F810BD10B5F74B01227521D0208E
:10402000FEF7F3FFF448007810BD10B5FFF7F3FF7B
:10403000682801D1012010BD0020FCE710B504461E
:10404000234605226A21D020FFF78BF810BD10B55A
:104050000446234601223721D020FFF782F810BD05
:1040600010B50220FFF7B0FF0320FFF7B7FF0020D5
:10407000FFF7BEFF0020FFF7C5FF0020FFF7DEFFC0
:104080000020FFF7E4FF10BD38B5002000900120AC
:10409000DA4908706B46012275216820FEF757FF48
:1040A000D7A00AF095FF9DF8000068280ED000BF49
:1040B000DC48006800F4E060DB490843001DD94992
:1040C0000860BFF3408F00BF00BFFEE702F033FB84
:1040D00000283CD1782001F096FF10B9C8A00AF062
:1040E00077FF782002F076F910B9D0A00AF070FFBF
:1040F000C82002F050FA10B9D6A00AF069FF03F008
:104100000DFE10B9DDA00AF063FFE948FFF709FED4
:10411000044603F00DFE10B9E6A00AF059FF40F284
:10412000731004F046FA10B9ECA00AF051FFC82051
:1041300003F0B8FF10B9F3A00AF04AFFFFF705FE3D
:10414000012003F031FB10B9F7A00AF041FF002075
:10415000AA49087038BD2DE9F04F8FB00CA8FB4973
:104160000DAB08AACDE90010F949FA4804F080FB2C
:10417000F648008800F4807000287DD008980EF082
:104180005FFB04464FF09D410EF028FAF2490860AB
:1041900009980EF055FB04464FF09D410EF01EFAB3
:1041A000EE4908600A980EF04BFB04464FF09D4123
:1041B0000EF014FAEA4908600B980EF041FB044631
:1041C0004FF09D410EF00AFAE6490860E2480168A6
:1041D0004FF080400EF094FB0690E148016806988D
:1041E0000EF08EFB8246DD4801684FF040400EF035
:1041F00087FB0690DB48016806980EF081FB83463A
:1042000051460EF07DF907900EF04EF980460CF005
:1042100097FF06464FF06632D34B0DF035FE04464D
:104220000DF05CFBD1490860CD4801684FF080403B
:104230000EF066FB0390CA48016803980EF060FB1D
:104240008246C64801684FF040400EF059FB03908B
:10425000C248016803980EF053FB834651460EF0A6
:1042600057FC81464FF07E510EF04AF904460EF09D
:104270001BF9CDE9040100E082E0B74801684FF086
:1042800080400EF03DFB8346B448016858460EF06E
:1042900037FB8146B24801684FF080400EF030FB9A
:1042A0008346B048016858460EF02AFB82464946CC
:1042B0000EF026F904460EF0F7F80746DDE9042370
:1042C0000DF086F94FF06632A74BCDE906010DF0EF
:1042D000DBFD05460DF002FBA5490860A148016819
:1042E00000680EF00DFB03909D48016800680EF019
:1042F00007FB02909948016800680EF001FB8346B5
:104300009548016800680EF0FBFA594601900EF0DE
:10431000F7F8824602990EF0FBFB814603990EF0F6
:10432000F7FB04460EF0C0F8CDE904018D480168A2
:10433000894800680EF0E4FA824689480168874897
:1043400000680EF0DDFA834651460EF0D9F881463A
:104350004FF080410EF0D4FA04460EF0A5F807465F
:10436000DDE904230DF034F94FF066327E4BCDE9E0
:1043700006010DF089FD05460DF0B0FA7D49086093
:104380000FB0BDE8F08F2DE9F05F4221D020FEF79D
:1043900019FE05464121D020FEF714FE05EB00244E
:1043A00020460EF04DFA82464FF08E4150460EF0F8
:1043B00073FB05D24FF08F4150460EF0A9FB8246A9
:1043C0006D4950460EF00AF983460EF06DF88046AE
:1043D0006A4A6B4B0DF0B4FA06460022694B0DF0A9
:1043E00053FD04460DF07AFA824650460EF0ECF981
:1043F000BDE8F09F06050020F80400201A00002008
:104400006D70755F7365745F73656E736F72206333
:104410006F6D706C657465202E2E2E2E2E2E0D0A5B
:10442000000000000CED00E00000FA056D70755F03
:10443000636F6E6669677572655F6669666F206334
:104440006F6D706C657465202E2E2E2E2E2E0D0A2B
:10445000000000006D70755F7365745F73616D704F
:104460006C655F7261746520636F6D706C657465F7
:10447000202E2E2E2E2E2E0D0A000000646D705F51
:104480006C6F61645F6D6F74696F6E5F6472697683
:1044900065725F6669726D7761726520636F6D70BA
:1044A0006C657465202E2E2E2E2E2E0D0A00000017
:1044B000B8000020646D705F7365745F6F7269652A
:1044C0006E746174696F6E20636F6D706C65746576
:1044D000202E2E2E2E2E2E0D0A000000646D705FF1
:1044E000656E61626C655F66656174757265206397
:1044F0006F6D706C657465202E2E2E2E2E2E0D0A7B
:1045000000000000646D705F7365745F6669666FBC
:104510005F7261746520636F6D706C657465202EC9
:104520002E2E2E2E2E0D0A006D70755F7365745F32
:10453000646D705F737461746520636F6D706C651A
:104540007465202E2E2E2E2E2E0D0A00980000208F
:10455000920000208C000020A8000020AC00002069
:10456000B0000020B400002066A64C409C00002053
:10457000A0000020A40000200000AA43A4703D0A6F
:10458000D7434240000024402DE9F04706460F463D
:1045900014461D46DDF820A0681E83B2601E82B25C
:1045A0003946304600F0F6FAB8460EE0B14606E06D
:1045B000504600F0D8FA09F101001FFA80F9A14530
:1045C000F6DB08F101001FFA80F8A845EEDBBDE834
:1045D000F08770B504460D4616462B4622462946FE
:1045E000204600F0D7FA304600F0BDFA70BD2DE944
:1045F000FF4F85B081468A46002003908346079886
:10460000A0EB09050898A0EB0A06CDF80890CDF8B4
:1046100004A0002D01DD012705E00DB9002702E00F
:104620004FF0FF376D42002E02DD4FF0010806E02B
:1046300016B94FF0000802E04FF0FF387642B5425D
:1046400001DD2C4600E03446002004901EE0019A73
:1046500091B2029A90B2129AFFF7BBFF03982844D6
:104660000390B3440398A04205DD0398001B039018
:10467000029838440290A34504DDABEB040B01988B
:10468000404401900498401C80B20490611C04983E
:104690008842DCDB09B0BDE8F08F2DE9F843054620
:1046A0000E4617469846089C33463A4631462846F9
:1046B0000094FFF79CFF43462A4631462846009463
:1046C000FFF795FF43463A46414628460094FFF7D8
:1046D0008EFF43463A46314638460094FFF787FF3F
:1046E000BDE8F8832DE9F04706460F469046994607
:1046F0000025444641E07A1B91B2321B90B24A46F3
:10470000FFF767FF7A1B91B2321990B24A46FFF762
:1047100060FF3A1991B2721B90B24A46FFF759FFF7
:104720003A1B91B2721B90B24A46FFF752FF7A19B8
:1047300091B2321990B24A46FFF74BFF3A1B91B241
:10474000721990B24A46FFF744FF3A1991B27219B2
:1047500090B24A46FFF73DFF7A1991B2321B90B2F0
:104760004A46FFF736FF6D1C05FB05F004FB04010C
:1047700008FB08F0814200DD641EA542BBDDBDE8F8
:10478000F0872DE9FF5F0546894692469B460F9EBE
:10479000002002900095304606EBD071C1F347042B
:1047A0002046E21704EB5272D2102146E31704EBC5
:1047B0005373DB10A4EBC3030BB1012300E0002310
:1047C0001A44724392B20192AAF1200000F0FF0A4B
:1047D00009EB0600401E83B22819401E82B24946EA
:1047E000284600F0D7F94FF0000848E00C2E08D119
:1047F0000AEB4A00A14901EB800010F80800039081
:1048000001E0BDE8FF9F002732E01098C0B9012009
:10481000B8400399084018B1584600F0A4F902E0E6
:104820000E9800F0A0F90298401CC0B202900298C5
:1048300090FBF4F104FB1100C0B90020029019E0D4
:104840000120B8400399084020B15A4649462846FD
:10485000FFF7BFFE681C85B20098281AA04205D158
:10486000009D09F101001FFA80F903E0781CC7B22E
:10487000082FCADB00BF08F101001FFA80F8019879
:104880008045B3DB00BFBCE72DE9FE4F06460F466F
:1048900014469846DDE90D5ADDF8309010E0CDE978
:1048A000015ACDF800902278434639463046FFF74A
:1048B00068FF284605EBD07106EB61018EB2641CDF
:1048C00020780028EBD1BDE8FE8F10B5024601200C
:1048D00000E050430B00A1F10104E1B2F9D110BD99
:1048E0002DE9FF4F85B0074691461D46DDE913A629
:1048F00000200490304606EBD071C1F3470B002432
:1049000034E0281B401EC1B20A20FFF7DEFFB9FBCE
:10491000F0F00A21B0FBF1F201FB12080498A0B9F3
:10492000681EA04211DDB8F1000F0CD1002004FB7D
:104930000B71CDE900A6029088B22022129B069945
:10494000FFF71FFF10E001200490002008F1300164
:10495000CAB204FB0B71CDE900A6029088B2129B8B
:104960000699FFF70EFF00BF601CC4B2AC42C8DB63
:1049700009B0BDE8F08F2DE9FF4F85B0074690469E
:104980001C46DDE91396304606EBD071C1F3470BA8
:104990003B4940460DF0B4FF03900DF031FF80B26B
:1049A0000490002531E0601B401EC1B20A20FFF7D1
:1049B0008CFF0499B1FBF0F00A21B0FBF1F201FB8E
:1049C000120AA01EA84210D10020A11E01FB0B71EB
:1049D000CDE90096029088B22E22129B0699FFF72D
:1049E000D0FE681CC5B2601CC4B200200AF13001C0
:1049F000CAB205FB0B71CDE90096029088B2129BFA
:104A00000699FFF7BEFE681CC5B2A542CBDB09B014
:104A1000BDE8F08F2DE9F05F0746884615461E4633
:104A2000DDF82890002408EB0600401E83B27819B8
:104A3000401E82B24146384600F0ACF8A24618E06B
:104A40004FF0000B0FE019F8140000F086F8012178
:104A500001EB440119F8010000F07FF8641C0BF130
:104A600001001FFA80FBB345EDDB0AF101001FFADC
:104A700080FAAA45E4DBBDE8F09F0000222F010880
:104A80000000C84208B501210520FCF717FC0121F0
:104A90000820FCF713FC01211020FCF70FFC01217A
:104AA000CD48FCF720FAA020ADF8000010208DF8CA
:104AB000030003208DF802006946C848FCF742F95C
:104AC00041F20100ADF8000010208DF80300032032
:104AD0008DF802006946C248FCF734F94FF4C04033
:104AE000ADF8000010208DF8030003208DF80200BF
:104AF0006946BC48FCF726F94FF40051B948FCF769
:104B0000CEF908BD70B504464FF48041B548FCF7B6
:104B1000C8F9002519E00121B148FCF7C2F904F0F9
:104B2000800028B14FF48051AD48FCF7B8F904E09B
:104B30004FF48051AA48FCF7B4F90121A848FCF7CA
:104B4000AEF96006040E681CC5B2082DE3DB4FF415
:104B50008041A448FCF7A3F970BD10B50446204677
:104B6000FFF7D0FF10BD10B504462012FFF7CAFFB3
:104B7000E0B2FFF7C7FF10BD10B50446802197488B
:104B8000FCF78FF92046FFF7BDFF80219348FCF723
:104B900086F910BD2DE9F04107460C4615461E4624
:104BA0002A20FFF7E9FF3846FFF7DDFF2846FFF729
:104BB000DAFF2B20FFF7E0FF04F1180188B2FFF7BE
:104BC000D2FF06F1180188B2FFF7CDFF2C20FFF7C6
:104BD000D3FFBDE8F08110B5FFF754FF20217F48D7
:104BE000FCF75FF96420FDF71CFD20217B48FCF7F2
:104BF00056F96420FDF715FD4FF400517948FCF794
:104C00004EF96420FDF70DFD1120FFF7B5FF782068
:104C1000FDF707FDB120FFF7AFFF0520FFF79DFF70
:104C20003C20FFF79AFF3C20FFF797FFB220FFF7E9
:104C3000A3FF0520FFF791FF3C20FFF78EFF3C20EC
:104C4000FFF78BFFB320FFF797FF0520FFF785FFE6
:104C50003C20FFF782FF3C20FFF77FFF0520FFF796
:104C60007CFF3C20FFF779FF3C20FFF776FFB42064
:104C7000FFF782FF0320FFF770FF2120FFF77CFF83
:104C8000C020FFF779FF0E20FFF767FF0E20FFF728
:104C900064FF0420FFF761FFC120FFF76DFFC5200F
:104CA000FFF75BFFC220FFF767FF0D20FFF755FFFF
:104CB0000020FFF752FFC320FFF75EFF8D20FFF7B4
:104CC0004CFF2A20FFF749FFC420FFF755FF8D2036
:104CD000FFF743FFEE20FFF740FFC520FFF74CFF33
:104CE0000620FFF73AFF3620FFF746FF7820FFF750
:104CF00034FF3A20FFF740FF5520FFF72EFFE0205A
:104D0000FFF73AFF0B20FFF728FF1720FFF725FFDB
:104D10000A20FFF722FF0D20FFF71FFF1A20FFF7E1
:104D20001CFF1920FFF719FF1620FFF716FF1D20A3
:104D3000FFF713FF2120FFF710FF2620FFF70DFFDD
:104D40003720FFF70AFF3C20FFF707FF0020FFF79F
:104D500004FF0920FFF701FF0520FFF7FEFE1020EA
:104D6000FFF7FBFEE120FFF707FF0C20FFF7F5FE42
:104D70001920FFF7F2FE0920FFF7EFFE0D20FFF7E5
:104D8000ECFE1B20FFF7E9FE1920FFF7E6FE1520D9
:104D9000FFF7E3FE1D20FFF7E0FE2120FFF7DDFE19
:104DA0002620FFF7DAFE3920FFF7D7FE3E20FFF777
:104DB000D4FE0020FFF7D1FE0920FFF7CEFE05202C
:104DC000FFF7CBFE1020FFF7C8FE7820FDF729FC87
:104DD0002920FFF7D1FE10BD00023000000801407D
:104DE000000C0140001001402DE9F05F05460E4621
:104DF00030010DF03DFD8146694905FB01F00DF0E4
:104E000037FD824649460DF0E9FB074638460DF06E
:104E1000F7FC84B220460DF02BFD834639460DF099
:104E20006CFE82464FF083410DF06AFD81460DF025
:104E3000E7FC80464FF6FF7000EA041404EB08001C
:104E400084B25848806940F0040056498861084699
:104E5000C06940F40030C8615348006820F47F40C6
:104E6000514908600846006840F40B4008604E480D
:104E70000C30006840F008004B490C31086049488C
:104E8000006940F40030474908610846006920F491
:104E90000030086145480480001D008842F20C0182
:104EA00008434249091D08800846008840F4807084
:104EB00008800846008840F020000880022326224F
:104EC00001210846FDF7F2FBBDE8F09F374908399C
:104ED000098801F02001002961D03449091F09889F
:104EE000C8B23349098801F40041002957D130493B
:104EF000098801F48041B9B30A2803D000212C4A63
:104F000011804CE02A49098841F40041284A118067
:104F1000284A1278303A64235A43264B5B78303B58
:104F200003EB830302EB4303224A9278303A1A449C
:104F3000C2F1640202EB4201CA1701EB92729210B5
:104F400012B21D4B1A801B49C978303989001B4A9F
:104F500011801146B1F900100E2901DD0E211180DA
:104F60000021134A11801AE0FFE70D2806D11049ED
:104F7000098841F480410E4A118010E00C490988EB
:104F8000C1F30D010B4A505409490988491C084ACC
:104F90001180114609881E2901DD0021118070470A
:104FA00040420F0000100240000801400844004049
:104FB000C80000208A05002088000020860000200C
:104FC0000146002901DA484200E00846704700B572
:104FD00003460A461846FFF7F3FF642802DD012066
:104FE000FE4908601046FFF7EBFF642803DD01204F
:104FF000FA4914310860002B04DD0120F749091D2E
:10500000086003E00020F549091D08601846FFF715
:10501000D7FFF3490880002A03DD0020F14908602A
:1050200002E00120EF4908601046FFF7C9FFEC4994
:105030000C39088000BD00B502460B46EA480078EE
:1050400010B90020E9490860E748007801283BD101
:10505000002A39D11846FFF7B3FFE449096808442C
:10506000E249086008460068002808DD0846006834
:10507000642804DA0020DE490870DE490870DB4845
:105080000068642809DBD9480068C82805DA0020D0
:10509000D74908700120D7490870D4480068C8284B
:1050A0000ADBD2480068B0F5967F05DA0120D049C6
:1050B00008700020CF490870CC480068B0F5967F92
:1050C00002DB0020C949086000BD2DE9F04180469F
:1050D0000C461546C448007810B90020BDE8F081A0
:1050E000C5480088B0B940460DF0DEF906460022FA
:1050F000C24B0CF0C7FF0DD240460DF0D5F9064665
:105100000022BF4B0CF084FE04D21CB915B901205B
:10511000B9490880B8480088012824D1B9480088D6
:10512000401C80B2B7490880322803DD0020088087
:10513000B14908802046FFF743FF022813DD2846C7
:10514000FFF73EFF02280EDD2046FFF739FF462815
:1051500009DA2846FFF734FF462804DA0020A6497A
:1051600008800120BAE70020B8E72DE9F047814622
:105170000C4615461E46A4480088E0B92846FFF7AD
:105180001FFF02463046FFF71BFF1044142805DAC4
:105190009E480088401C9D49088002E000209B49F1
:1051A00008809A4800880A2805DD01209649088071
:1051B00000209649088094480088012825D1944809
:1051C0000088401C80B292490880C82803DD002076
:1051D00008808D4908808F4948460DF05DFC14D247
:1051E00020460DF061F9074600228B4B0CF04AFF78
:1051F0000BD220460DF058F907460022874B0CF0E1
:1052000007FE02D20220804908807F4800880228D9
:105210001BD183480088401C80B2814908806428E3
:1052200003DD00200880784908802846FFF7C8FE83
:1052300002463046FFF7C4FE1044962805DD0020E4
:10524000714908800120BDE8F0870020FBE7034694
:105250001846884200DD0846904200DA1046704742
:105260002DE9F04705466F4806686F48B0F9000021
:1052700040420DF0E5FA6D490860084600680DF0FF
:10528000A3FA0746FFF79CFE10B16948046800E0E6
:105290000024214628460DF033FB81466348006810
:1052A00080F00048314640460DF02AFB074649464B
:1052B0000DF02EFC5F490860084600680DF084FA86
:1052C000BDE8F0872DE9FC5F044689464848007830
:1052D00001282BD158480068962804DB56480068FE
:1052E000B0F5967F03DD0020544908600BE052487A
:1052F0000068C0F19600052190FBF1F528460DF0FD
:105300009FFA4E4908604E494C4800680DF0C4FBB6
:1053100002D24B48494908604A49484800680DF0A4
:10532000BBFA36D247484549086032E03148007838
:10533000012822D140480068C82803DD00203F49E9
:10534000086007E03C490968C1F1C8000DF078FA2F
:105350003A4908603C49394800680DF09DFB02D28B
:105360003948364908603949344800680DF094FAE4
:105370000FD23648314908600BE03548B0F90000DB
:105380004042032190FBF1F528460DF059FA2B49D4
:10539000086004EB09000DF053FA05462748016840
:1053A00028460DF0AAFB2B4908602B4800680DF039
:1053B0007BF80746294A2A4B0CF066FD05460CF09F
:1053C0008DFA25490860234800680DF06DF8054600
:1053D000244A254B0CF058FD074647E090812142B6
:1053E00040040040BC01224219000020200100209E
:1053F0003F000020400000201C010020000029C0C8
:1054000000001E401E010020140100201601002093
:10541000180100200050C346008036C00080314093
:105420001A010020580000208800002008010020F8
:105430005C0000200C01002038000020FC0000204F
:1054400000008841000088C100007041000070C168
:1054500086000020F4000020F800002085EB51B801
:105460001E85EB3FEC51B81E85EBC13F8846FE48D8
:1054700000680DF019F882463A4643460CF060FA8F
:10548000CDE900010CF02AFAF749086008460168E6
:10549000F64800680DF034F8F449086008460068E2
:1054A0000860F349F14800680DF0F6FA02D2F048BE
:1054B000EE490860EF49ED4800680DF0EDF902D2C1
:1054C000EC48EA490860EC480168E84800680DF0DB
:1054D00017FA0746E448006880F00046E74801688C
:1054E00030460DF00DFA054639460DF011FBE44942
:1054F0000860E4480078012802D10020DB490860F8
:10550000DF4800680DF060F9BDE8FC9F2DE9F84F19
:1055100081460C4648460CF0C7FF07460022DA4B8E
:105520000CF0E6FD05460CF0D9F9824684F0004BFC
:10553000D648016858460DF0E3F98046D448006823
:1055400080F00047514638460DF0DAF906464146EC
:105550000CF0D6FF05460DF037F900900098BDE835
:10556000F88F10B5FDF72FFE0446012C0FD1C5486A
:10557000007808B9012000E00020C249087000212D
:105580000846FFF724FD4FF4FA70FDF74AF810BD06
:105590002DE9F04F87B083468A4658460CF020FC30
:1055A0000022BC4BCDE900010CF06EFC0646002247
:1055B000B94B0CF081FA80460022B84B0CF07CFA13
:1055C00004460022B34B0CF077FACDE902010CF04F
:1055D00085F9059005980CF067FF8046B04AB14BFD
:1055E0000CF052FC0646B04AB04B0CF04DFC0446A1
:1055F0000CF074F9AE49086050460CF0F1FB002243
:10560000A44BCDE900010CF03FFC80460022A24BE8
:105610000CF052FA06460022A04B0CF04DFA002284
:105620009C4BCDE902010CF047FA04460CF056F908
:10563000049004980CF038FF0646994A994B0CF0F8
:1056400023FC0446984A994B0CF01EFC80460CF053
:1056500045F99849086007B0BDE8F08F2DE9F04F93
:105660008DB08046FEF78FFE93490860B8F1010FB8
:105670001BD1FEF770FD914800689149086091497F
:10568000B1F900000DF0DCF88F4908608D49B1F9DF
:1056900004000DF0D5F88D4908608D49B1F904007A
:1056A0000DF0CEF88B49086070E14421D020FDF761
:1056B00089FC83464321D020FDF784FC0BEB0020BE
:1056C00009900DF0BDF806464621D020FDF77AFC82
:1056D00083464521D020FDF775FC0BEB0020099097
:1056E0000DF0AEF804464821D020FDF76BFC834650
:1056F0004721D020FDF766FC0BEB002009900DF050
:105700009FF807463C21D020FDF75CFC83463B21F7
:10571000D020FDF757FC0BEB002009900DF090F81E
:1057200082463E21D020FDF74DFC83463D21D0200E
:10573000FDF748FC0BEB002009900DF081F8814645
:105740004021D020FDF73EFC83463F21D020FDF7CD
:1057500039FC0BEB002009900DF072F805464FF074
:105760008E4130460DF098F905D24FF08F4130460A
:105770000DF0CEF906464FF08E4120460DF08CF923
:1057800005D24FF08F4120460DF0C2F904464FF08C
:105790008E4138460DF080F905D24FF08F413846E2
:1057A0000DF0B6F907464FF08E4150460DF074F9F2
:1057B00005D24FF08F4150460DF0AAF982464FF0C6
:1057C0008E4148460DF068F905D24FF08F414846AA
:1057D0000DF09EF981464FF08E4128460DF05CF9A0
:1057E00005D24FF08F4128460DF092F9054684F01E
:1057F00000403549086028460CF056FECDE902010C
:1058000048460CF051FECDE90001DDE902230BF022
:10581000DFFE0022304BCDE904010CF035FB204ABD
:10582000204BCDE906010CF047F9CDE908010CF059
:1058300055F80B9028460CF037FECDE90201504692
:105840000CF032FECDE90001DDE902230BF0C0FED1
:105850000022214BCDE904010CF016FB104A114B3C
:10586000CDE906013AE00000F80000200001002028
:1058700000007A4400007AC4540000205000002048
:10588000F000002019000020000004C04C0000209F
:105890004800002000005940000010400000F03F88
:1058A000F1D4C853FB2109409A99999999991940C3
:1058B000D4010020D801002024000020A0000020F6
:1058C0002C0000208C00002030000020340000203C
:1058D0009200002044000020008066400CF0ECF8AC
:1058E000CDE908010BF0FAFF0A9030460CF0DCFD20
:1058F0004FF06632F94BCDE906010CF0DDF8CDE949
:1059000008010BF0EBFF064620460CF0CDFD4FF0F2
:105910006632F24BCDE906010CF0CEF8CDE9080174
:105920000BF0DCFF0446EE480078022812D1314625
:105930000B9803F0ABF880F00040EA49086084F06F
:10594000004B59460A9803F0E1F980F00040E6491F
:10595000086013E0E248007803280FD131460B9825
:1059600003F0ABF980F00040DF49086021460A9857
:1059700003F020FB80F00040DA490860DA48006854
:10598000DA490860DA480760DA4805600DB0BDE81A
:10599000F08F2DE9FC5FD848008800F00100002856
:1059A0007ED0D548008820F00100D3490880CC483B
:1059B0000078FFF753FE0220FDF713F90446042098
:1059C000FDF70FF9454214B90020CC4908601DB914
:1059D0000020CA491439086029462046FFF7D8FD3F
:1059E000FDF755F8C6490860C6480068401CC5491F
:1059F0000860C5480068C24909680844C24908608F
:105A0000C0480068642821D108460068642190FBE2
:105A1000F1F0BE4908600020BB490860B949086040
:105A2000BA48006840F6B831884205DAB8480078CC
:105A3000401CB749087002E00020B5490870B4481E
:105A400000780A2802D10120B2490870FFF789FDC9
:105A5000B1480168A5480068FFF758FD0646294689
:105A60002046FFF72FFC8146A1480068FFF7F8FBAE
:105A7000824606EB09005044A849086006EB09007D
:105A8000A0EB0A00A6490860A64A5142A348006854
:105A9000FFF7DDFBA1490860A24A5142A04800E09F
:105AA000DFE10068FFF7D3FB9D4908602B462246E3
:105AB0008E4801688F480068FFF757FB10B101203E
:105AC000994908702A46214688480068FFF7FDFA80
:105AD00010B10020944908709449844800680CF083
